:020000040800F2
:10000000D084002055020008854E0008A53C000859
:10001000814E00088D1100086D6C00080000000082
:100020000000000000000000000000009D0100082A
:100030004527000800000000F101000809620008DF
:100040006F0200086F0200086F0200086F020008CC
:100050006F0200086F0200086F0200086F020008BC
:100060006F0200086F0200086F0200086F020008AC
:100070006F020008652200086F020008392300089B
:100080006F020008992300086F0200086514000839
:100090000D140008391400086F0200086F020008F0
:1000A0006F0200086F0200086F0200086F0200086C
:1000B0006F0200086F0200083D6300086F0200082D
:1000C0006F0200086F0200086F0200086F0200084C
:1000D0006F0200086F0200087D6800081D6A0008B2
:1000E0006F0200086F0200086F0200086F0200082C
:1000F0006F0200086F0200086F0200086F0200081C
:100100006F0200086F0200086F0200086F0200080B
:10011000496600086F0200086F0200086F020008BD
:100120006F0200086F0200086F0200086F020008EB
:100130006F0200086F0200086F0200082D19000806
:10014000D5180008011900086F0200086F020008A6
:100150006F0200086F0200086F0200086F020008BB
:100160006F0200086F0200086F0200086F020008AB
:100170006F0200086F0200086F0200086F0200089B
:100180006F0200086F020008DFF80CD000F0BCFB23
:1001900000480047DD860008D08400202A4B1968FB
:1001A0000868B0E8F04F80F30988BFF36F8F4FF015
:1001B000000080F3118870470000000006480068C6
:1001C000006880F3088862B661B6BFF34F8FBFF353
:1001D0006F8F00DF00BF00BF08ED00E0DFF80C000C
:1001E000016841F470010160704700BF88ED00E0D4
:1001F000EFF30980BFF36F8F134B1A681EF0100FD7
:1002000008BF20ED108A20E9F04F106008B44FF0CD
:10021000200080F31188BFF34F8FBFF36F8F09F079
:10022000D1FD4FF0000080F3118808BC1968086800
:10023000B0E8F04F1EF0100F08BFB0EC108A80F34A
:100240000988BFF36F8F704750020020EFF30580DD
:10025000704700000648804706480047FEE7FEE773
:10026000FEE7FEE7FEE7FEE7FEE7FEE7FEE7FEE766
:100270003D6200088901000840EA01039B0703D0A2
:1002800009E008C9121F08C0042AFAD203E011F8D5
:10029000013B00F8013B521EF9D27047D2B201E097
:1002A00000F8012B491EFBD270470022F6E710B57B
:1002B00013460A4604461946FFF7F0FF204610BDD4
:1002C000421C10F8011B0029FBD1801A704703461D
:1002D00011F8012B00F8012B002AF9D118467047BC
:1002E0002DE9FE4F804681EA0300C00F0C460090C6
:1002F00021F0004123F00045B8EB0200A94105D2EE
:100300004046214690461C460B46024623F00040DC
:10031000104347D0270DC7F30A00C3F30A510290D8
:10032000401A019040286BDAC3F3130040F4801B9D
:100330000098924620B10023D2EB030A63EB0B0B2B
:1003400001985946C0F14002504600F0BFF90646F8
:100350000D4650465946019A00F0C7F910EB0800C7
:100360006141002487EA115284EAE7731A4340D0BE
:10037000009A62B3019A012A4FEA075215DC001B6A
:1003800061EB02014FF0004202EA0752CDE9004260
:10039000001C41F5801132462B4600F0FEF903B0F7
:1003A000BDE8F08F40462146F9E7001B61EB0201F2
:1003B000001C41F5801300185B412018A2F50017BE
:1003C00047EB030140EAD570B6196D4111E06D08A5
:1003D0004FEA360645EAC0754FEA0752001B61EB4B
:1003E0000201001C41F5801149084FEA3000001954
:1003F000514132462B4603B0BDE8F04F00F0BEB984
:100400000098012240000023D0EB020263EBE0736E
:10041000009821464FEAE074B8EB000061EB04015C
:10042000E9E783F000435BE781F0004158E72DE9FD
:10043000FE4F81EA030404F0004421F000410094DF
:100440004FF0000B23F0004350EA01045ED052EA63
:1004500003045BD0C3F30A54C1F30A552C44A4F23D
:10046000F3340194A0FB0254C1F3130141F4801151
:10047000C3F3130343F4801301FB024400FB034E58
:10048000840A970A44EA815447EA8357A4FB076821
:1004900002958D0A05FB07854FEA932C04FB0C544B
:1004A0002705029D4FEA065847EA1637B5EB0805BF
:1004B0006EEB070C870E920E47EA811742EA831211
:1004C000A7FB0201B6EB0B0164EB00042B0D43EA22
:1004D0000C335E1844EB1C50DA465146E7FB020130
:1004E000C5F313044FEA0B3343EA14534FEA0432C3
:1004F000019C43EA0603A4F10C040294009CCDE99C
:1005000000B400F04AF903B0BDE8F08F00200146C6
:10051000F9E72DE9F04D81EA030404F0004B21F0E6
:10052000004514464FF0000A23F0004150EA05024E
:1005300020D054EA01021DD0C5F30A570246C5F384
:100540001303C1F31300C1F30A5640F4801543F4BA
:100550008013A7EB0608101BD64608F2FD3873EB94
:10056000050002D308F1010801E092185B41B8F1DF
:10057000000F03DA00200146BDE8F08D00204FF4A3
:100580008011064684460EE0171B73EB050705D362
:10059000121B63EB050306434CEA010C49084FEAC2
:1005A000300092185B4150EA0107EDD152EA030096
:1005B00012D082EA040083EA0501084305D0101B2B
:1005C000AB4106D20122002306E000224FF0004397
:1005D00002E06FF0010253101AEB06004CEB0851D9
:1005E00010EB0A0041EB0B01BDE8F04D00F0C6B87E
:1005F0000EB5C10F80EAE0700844CA07002140F23E
:1006000033438DE80E000A460B4600F0C6F803B0EF
:1006100000BD00F0004230F000400AD0C10D01F5ED
:100620006071C0F3160042EA0151C208400711434D
:10063000704700200146704730B5041E71F1000478
:1006400004DB4FF00044404264EB0101141E73F1DF
:10065000000405DB1C464FF00043524263EB0403E9
:10066000994208BF904230BD01F0004330B421F000
:10067000004150EA010206D00A0DA2F56072C1F3F2
:100680001301002A02DC30BC00207047440F44EA0A
:10069000C104C100E01830BC00EBC25000F037B814
:1006A00030B50B46014600202022012409E021FA42
:1006B00002F59D4205D303FA02F5491B04FA02F53F
:1006C0002844151EA2F10102F1DC30BD202A04DB12
:1006D000203A00FA02F1002070479140C2F1200355
:1006E00020FA03F3194390407047202A06DBCB170A
:1006F000203A41FA02F043EAE07306E041FA02F3DD
:10070000D040C2F1200291400843194670470029A9
:10071000A8BF7047401C490008BF20F00100704787
:1007200010B4B0FA80FC00FA0CF050EA010404BFE7
:1007300010BC704749B1CCF1200421FA04F411FA3D
:100740000CF118BF012121430843A3EB0C01CB1D81
:100750004FEA00614FEA102042BF002010BC7047F2
:1007600000EBC35010440029A4BF10BC7047401CCC
:10077000490008BF20F0010010BC704710B5141EDE
:1007800073F1000408DA401C41F1000192185B414A
:100790001A4301D120F0010010BD2DE9F04D924621
:1007A0009B4611B1B1FA81F202E0B0FA80F2203238
:1007B0009046FFF78BFF04460F4640EA0A0041EAE5
:1007C0000B0153465A46084313D0114653EA010021
:1007D00019D0C8F14002504600F0A8F805460E4670
:1007E000504659464246FFF771FF084305D00120A5
:1007F00004E020463946BDE8F08D0020054346EA76
:10080000E0762C4337430A986305E40AA0EB08001E
:100810000022FD0A44EA47540A3002D5002001466E
:10082000E9E7010510196941DDE908450019694149
:10083000BDE8F04DA2E770B521F0004303430CD0B2
:10084000C1F30A550024D5EB040564EB0403D61765
:10085000AD1AB34102DB0020014670BD201841EB08
:10086000025170BD2DE9F04D00231A461B1A8A4132
:1008700003DB00200146BDE8F08DC1F30A52C1F34D
:10088000130141F480154FF0000BD10702D100187D
:100890006D41521E0027044640F2FF11384601EB1D
:1008A000620A3E468046024600204FF4801100F066
:1008B0003DF8C2197141BB1846EB0100B4EB030CC3
:1008C00075EB000C04D3E41A65EB000517460E46E1
:1008D000241908F101006D4180463428E3DDF9193F
:1008E00046EB0600091BA84103D24FF0FF32134626
:1008F00001E0002213461BEB070046EB0A51BDE85E
:10090000F04DFFF73BBF0000064C074D06E0E068E6
:1009100040F0010394E8070098471034AC42F6D346
:10092000FFF736FC38A7000858A70008202A04DB88
:10093000203A21FA02F00021704721FA02F3D04058
:10094000C2F12002914008431946704770B58C18D7
:1009500010F8015B15F0070301D110F8013B2A11D3
:1009600006D110F8012B03E010F8016B01F8016BC0
:100970005B1EF9D12B0705D40023521E0DD401F8BC
:10098000013BFAE710F8013BCB1A921C03E013F885
:10099000015B01F8015B521EF9D5A142D8D30020BA
:1009A00070BD0000B0B5B0F800C00B889C4553D1B5
:1009B00045884B889D424FD113889C454CD1538824
:1009C0009D4249D143684968506805FB0CFC0022F0
:1009D000B2EB9C0F30D04FEA9C0200BF93ED000AAF
:1009E00091ED001A03F1100E30EE010A80ED000ABD
:1009F00093ED010A91ED011A01F1100430EE010AA4
:100A000080ED010A93ED020A91ED021A00F1100542
:100A100030EE010A80ED020A93ED030A91ED031A0C
:100A2000013A30EE010A80ED030A7346284621465A
:100A3000D4D12146284673461CF003020AD000BFD9
:100A4000B3EC010AB1EC011A013A30EE010AA0EC54
:100A5000010AF5D1002000E0FD2040B2B0BD0180C8
:100A600042804360704700002DE9F04F81B02DEDCA
:100A7000028B8EB0B0F800C0B0F802A0D44540F0B0
:100A80003A810B88FD229C4540F036814F88BB425D
:100A900040F0328140689FEDB08ABCF1000F0090B9
:100AA00000F031814C686FF0030000EB8C090027E7
:100AB00000266546CDF828C0204609940A98401BB8
:100AC00008D0B1002046FFF7F0FB3846013004F1B2
:100AD0000404FBD304F1040BB5F101084FF07E5080
:100AE000206012D0A9EB86015846FFF7DEFB0120FB
:100AF0005C4600BF0130854204F10404FAD101369E
:100B0000013FB8F1000F4546D8D1DDF828C0BCF14F
:100B1000000F00F0F8804FEACA00043002900998F4
:100B2000009900EB8A00C0F10009042000EB8A0064
:100B3000ACF1010801EB8A054FEA8A03019001F14B
:100B4000040B4FF0000E0F46564600200A46049054
:100B5000039300BF0EFB0AF002EB800191ED000A47
:100B60000C910999B5EE400AF1EE10FA01EB800004
:100B70000D90CDF82080CDE906950B922ED10EF187
:100B8000010060450DD20020414600BF2A1892EDB9
:100B9000000AB5EE400AF1EE10FA06D10139184408
:100BA000F4D10498012817D0D4E0A0EB090000216B
:100BB00057F82130146842F8043B47F821400131CE
:100BC0008E42F5D10D9A51461368046840F8043BF3
:100BD000013942F8044BF7D1012004900C99AAEB9B
:100BE0000E0991ED008AB9F1010F4FF07E500860B7
:100BF0000DD00120594600BF91ED000A013080EE72
:100C0000080A864281ED000A01F10401F4D10D9930
:100C10005046CDF814B000BF91ED000A013880EEC7
:100C2000080AA1EC010AF7D1DDF82C800998A9F196
:100C3000010B0022654600BF724505D108EB890310
:100C400000EB8A0036E000BF0C9998ED008A91ED28
:100C5000000ABBF1000F28EE000A38EE400A88EDCA
:100C6000000A17D00123042107EB010C08EB010453
:100C70009CED000A94ED001A28EE000A013331EED3
:100C8000400A9E4201F1040184ED000AECD108EB18
:100C9000010301E008F104030D9C5146B4EC011A74
:100CA00090ED000A28EE011A30EE410AA0EC010A8C
:100CB0000139F3D103EB8E08013D02F10102BBD1F2
:100CC000079D02980B9ADDF820800544039BDDF810
:100CD00018900198DDF814B0DDF828C00432013E08
:100CE0000EF1010EA8F10108A9EB030907448344A2
:100CF0007FF430AF09E0FD2250B20EB0BDEC028BA4
:100D000001B0BDE8F08F00200490B5EE408AF1EE0E
:100D100010FA4FF00002EFD104980128ECD00AFB42
:100D20000CF14FF000004FF0000271B1009B00BFCA
:100D300093ED000AB5EE400AF1EE10FA05D101324A
:100D4000914203F10403F3D10A468A4208BF6FF0CF
:100D50000400D2E7FB22CFE7000000002DE9F04FAE
:100D600085B047880B889F4240F08480B0F800B07F
:100D700013889B4540F07E80B1F802E053889E4581
:100D800078D1D0F80480506849680190BC0827F0F9
:100D9000030008EB800604FB0EF09FED390A07F014
:100DA000030C029101EB00104FEA8E02002100902B
:100DB000CDE903E70198DDF808A0009B00EB81096D
:100DC000B0EE401A5746404674B355462746404653
:100DD000B0EE401A95ED002A90ED003A154490EDE2
:100DE000014A23EE022A95ED003A154490ED025A8D
:100DF00031EE021A24EE032A95ED003A154490EDE7
:100E0000036A31EE021A25EE032A95ED003A31EE1F
:100E1000021A26EE032A31EE021A013F00F11000F9
:100E20001544D7D11F463046BCF1000F0CD06546A3
:100E300090ED002A97ED003A043022EE032A31EEBD
:100E4000021A013D1744F3D1A9EC011ABEF1010EBB
:100E50000AF1040A03F10403B2D1DDF80CE0049FA7
:100E6000714408EB8708BBF1010B06EB8706A1D1A3
:100E7000002000E0FD2040B205B0BDE8F08F00BFCB
:100E800000000000B0B5B0F800C00B889C4553D1FD
:100E900045884B889D424FD113889C454CD153883F
:100EA0009D4249D143684968506805FB0CFC00220B
:100EB000B2EB9C0F30D04FEA9C0200BF93ED000ACA
:100EC00091ED001A03F1100E30EE410A80ED000A98
:100ED00093ED010A91ED011A01F1100430EE410A7F
:100EE00080ED010A93ED020A91ED021A00F110055E
:100EF00030EE410A80ED020A93ED030A91ED031AE8
:100F0000013A30EE410A80ED030A73462846214635
:100F1000D4D12146284673461CF003020AD000BFF4
:100F2000B3EC010AB1EC011A013A30EE410AA0EC2F
:100F3000010AF5D1002000E0FD2040B2B0BD000064
:100F40002DE9F04FB0F800A04A88924545D142887B
:100F50000B889A4241D1D1F804C046684FEA920802
:100F600002F003094FEA0A1E4FEA8A014FF0000B14
:100F7000624600BFB8F1000F1AD01546474600BFC1
:100F8000336828462B6073680D444350B3686C186F
:100F90006B50F56806F1100366186550013F06EBCB
:100FA00001051E46ECD100EB0E071E4602E000BF15
:100FB0000CEB8B07B9F1000F06D0484656F8043BFE
:100FC00001383B600F44F9D10BF1010BBAF1010A72
:100FD00002F10402CED1002000E0FD2040B2BDE8C5
:100FE000F08F000070B505460C4600260DB1022CAE
:100FF00000D870BDA11E06480288284601F0B6FD43
:101000000646A01E2E54310A601E295400BFF0E788
:10101000DC02002070B505460C4600260DB1022CFE
:1010200000D870BD611EFF22284601F0B9FD0646BA
:10103000601E2E5400BFF4E710B54FF4005108486D
:1010400001F087FD28B94FF40051054801F08CFDEF
:1010500004E04FF40051024801F084FD10BD00008F
:101060000008024010B52DED068B1E480068FFF702
:10107000D0FA41EC1A0B9FED1C0B53EC102BFFF731
:10108000D6F941EC180B1A48D0ED1A0A90ED010A76
:10109000B8EEC00A30EEC00A10EE101A0846FFF78C
:1010A000B8FA41EC190B53EC182BFFF7C5FA09D22B
:1010B0001048B0F900000F490988491C09B20D4ACF
:1010C000118000E000200B4908800846B0F90000BC
:1010D000B0F5FA7F03DD00200549A1F8D800BDEC8A
:1010E000068B10BD14010020000000000000E03F4E
:1010F000540E00200A01002070B586B004460D464B
:10110000164600208DF80C008DF80D0008208DF893
:101110000E00800101901B48854200DC05E042F290
:101120001070854200DB00E02846054615488642DF
:1011300000DC05E042F21070864200DB00E0304641
:1011400006461048844200DC05E042F210708442FA
:1011500000DB00E020460446280A8DF80F008DF8D9
:101160001050310A8DF811108DF81260210A8DF897
:1011700013108DF8144001A9034800F08AFE06B050
:1011800070BD0000F0D8FFFF0064004000BFFEE724
:1011900000B58BB00121022004F030FA012148068D
:1011A00004F03CFA092208215D4801F0AFFC092255
:1011B00011465B4801F0AAFC4FF4407002900220F7
:1011C0008DF80C008DF80D0000208DF80E00012028
:1011D0008DF80F0002A9524801F050FC14208DF840
:1011E000040001208DF8050000208DF80600012084
:1011F0008DF8070001A803F047FE15208DF80400C4
:1012000001208DF8050000208DF8060001208DF8E2
:10121000070001A803F038FE13208DF80400012018
:101220008DF8050000208DF8060001208DF80700DC
:1012300001A803F029FE3B4800F0E0FB08A800F0FD
:1012400018FE00208DF8260001208DF827008DF86B
:10125000280000208DF829008DF82A0001208DF843
:101260002B0000208DF822008DF8230008208DF837
:10127000240003208DF82500ADF8200008A9294896
:1012800000F0F5FC00208DF81A0001208DF81B00FD
:1012900000208DF81C0044F22000ADF8100044F24C
:1012A0004000ADF8120044F26000ADF814000020D8
:1012B000ADF81600ADF8180001208DF81D0004A847
:1012C00000F0B8FB01208DF81A008DF81B000020FB
:1012D0008DF81C004FF40050ADF8100042F22000D1
:1012E000ADF812000020ADF81400ADF81600012092
:1012F000ADF818008DF81D0004A800F09BFB01223A
:101300000221084800F0AAFC01221021054800F043
:10131000A5FC01221146034800F0A0FC0BB000BD63
:1013200000040240006400403348006840F201219C
:10133000884218D13048007B2F49C97A40EA012001
:101340002E4908802C48817B407B41EA002000B276
:101350002A4948812A48B0F84800401C00B2284970
:10136000A1F8480046E02448006840F20221884283
:101370001AD12148007B2049C97A40EA01201F493F
:10138000A1F8DC001C48817B407B41EA002001B2CF
:101390001A48A0F8E6101A48B0F85000401C00B2F5
:1013A0001749A1F8500025E01348006840F20321D6
:1013B00088421FD11048007B0F49C97A40EA0120BA
:1013C000104908800C48817B407B41EA002000B234
:1013D0000C4948810848817B407B41EA002000B2EB
:1013E000084948810648B0F85800401C00B204493A
:1013F000A1F8580070470000B06C0020300F0020AA
:10140000EC090020540E00207047000010B50221A6
:10141000074800F093FB50B1064A0021044800F051
:10142000B0FCFFF781FF0221014800F08DFA10BDEA
:1014300000640040B06C002010B51021074800F097
:101440007DFB50B1064A0121044800F09AFCFFF7E9
:10145000DBFF1021014800F077FA10BD0064004066
:10146000C46C002010B50121044800F067FB18B1DE
:101470000121024800F068FA10BD0000006400403D
:1014800000B58BB00121022004F0B8F801218806D4
:1014900004F0C4F809220D215C4801F037FB092251
:1014A0000C215A4801F032FB4FF4405002900220C8
:1014B0008DF80C008DF80D0000208DF80E00012035
:1014C0008DF80F0002A9514801F0D8FA40208DF89C
:1014D000040001208DF8050000208DF80600012091
:1014E0008DF8070001A803F0CFFC41208DF804001F
:1014F00001208DF8050000208DF8060001208DF8F0
:10150000070001A803F0C0FC3F208DF80400012073
:101510008DF8050000208DF8060001208DF80700E9
:1015200001A803F0B1FC3A4800F068FA08A800F0FE
:10153000A0FC00208DF8260001208DF827008DF8F2
:10154000280000208DF829008DF82A0001208DF850
:101550002B0000208DF822008DF8230008208DF844
:10156000240003208DF82500ADF8200008A92848A4
:1015700000F07DFB0F208DF81A0001208DF81B0074
:1015800000208DF81C0044F2E000ADF8100044F299
:10159000A000ADF812004FF48240ADF8140044F200
:1015A000C000ADF816000020ADF8180001208DF83D
:1015B0001D0004A800F03EFA10208DF81A0000204B
:1015C0008DF81B008DF81C00ADF81000ADF812006E
:1015D000ADF81400ADF816000120ADF818008DF834
:1015E0001D0004A800F026FA01220221084800F09C
:1015F00035FB01221021064800F030FB0122114684
:10160000034800F02BFB0BB000BD000000040240BB
:10161000006800404948006840F2072188421ED116
:101620004648007B4549C97A40EA01204449088080
:101630004248817B407B41EA002000B240498880DB
:101640003E48017CC07B41EA002000B23C49488012
:101650003C48008A401C00B23A4908826CE0374896
:10166000006840F2052188421ED13448007B33498E
:10167000C97A40EA0120344908803048817B407BA8
:1016800041EA002000B2304988802C48017CC07BB0
:1016900041EA002000B22C4948802A48008B401CB7
:1016A00000B22849088347E024480068B0F5027F6B
:1016B0001ED12248007B2149C97A40EA01202349F2
:1016C00008801E48817B407B41EA002000B21F4910
:1016D00088801A48017CC07B41EA002000B21B4987
:1016E000488018480088401C00B21649088023E052
:1016F0001248006840F2062188421DD10F48007B45
:101700000E49C97A40EA0120114908800B48817BC3
:10171000407B41EA002000B20D4988800748017CE7
:10172000C07B41EA002000B2094948800548008991
:10173000401C00B20349088170470000D86C0020AB
:101740000C110020EC09002020130020341500208B
:101750004817002008B552480068B0F5807F10D1C6
:1017600050484F49D1F80B10816101464C48D0F8E0
:101770000F0008614C48008E401C00B24A490886A0
:1017800042E04748006840F20111884210D14548C4
:101790004349D1F80B10016201464148D0F80F00CF
:1017A00048614148008F401C00B23F4908872BE048
:1017B0003B480068B0F5817F10D13C483849D1F8EA
:1017C0000B10816101463648D0F80F000861364899
:1017D000008C401C00B23449088415E03048006891
:1017E00040F2031188420FD130482D49D1F80B1037
:1017F000016201462A48D0F80F0048612A48008D4E
:10180000401C00B22849088525480068B0F5827F51
:1018100024D12348B0F80B0000902148D0F80D00E7
:1018200000EE100A1E48407C21490870BDF90000F6
:10183000404200EE900AF8EEE00A9FED1E1AC0EE5C
:10184000811A1D48C0ED001AF8EEC00A9FED191A62
:10185000C0EE811A1948C0ED001A20E01048006857
:10186000B0F5837F1BD116480D49C97A017015491F
:101870000B48007B087014490948B0F80D00088037
:1018800012490748C07B08700748B0F86800401C40
:1018900000B20549A1F8680000200D49086008BDA4
:1018A000EC6C0020B4080020EC0900201009002096
:1018B000781900200000C842900000208C00002011
:1018C00000010020010100207000002074000020B1
:1018D0008008002010B50221074800F02FF950B110
:1018E0000221054800F030F8044A0021024800F0C7
:1018F00048FAFFF78FFE10BD00680040D86C00204A
:1019000010B51021074800F019F950B11021054811
:1019100000F01AF8044A0121024800F032FAFFF7F9
:1019200019FF10BD00680040EC6C002010B50121CB
:10193000044800F003F918B10121024800F004F84E
:1019400010BD000000680040B1F5007F3AD00FDC08
:10195000202928D006DC01291CD004291DD0082903
:1019600040D11DE0402921D0B1F5807F3AD126E059
:10197000B1F5004F31D006DCB1F5806F25D0B1F55F
:10198000006F2FD124E0B1F5803F12D0B1F5003FB8
:1019900028D111E0154A826025E00822C26022E0C9
:1019A0001022C2601FE0082202611CE010220261C6
:1019B00019E00822426016E01022426013E004227F
:1019C000426010E0042242600DE0042242600AE01E
:1019D000002282610422426005E00022826104222A
:1019E000426000E000BF00BF70470000010101003D
:1019F00010B5FFF7CDFBFFF743FD10BD10B5044652
:101A00000B48844209D10121480603F017FE00214A
:101A10004FF0007003F012FE08E00121880603F089
:101A20000DFE00214FF0806003F008FE10BD0000A5
:101A30000064004010B50021837A012202FA03F10C
:101A40003D4A126842F001023B4B1A603A4A1C328E
:101A500012688A43384B1C331A60027BCAB9364A73
:101A60000C3212688A43344B0C331A604288C388A4
:101A700042EA0343304A4032847A42F834300288E2
:101A8000838842EA03432C4A4032847A02EBC40240
:101A90005360027B012A19D1274A0C3212680A438B
:101AA000254B0C331A604288038842EA0343224ADA
:101AB0004032847A42F83430C288838842EA034351
:101AC0001D4A4032847A02EBC4025360C27A3AB9AA
:101AD000194A121D12688A43174B1B1D1A6006E033
:101AE000154A121D12680A43134B1B1D1A60028906
:101AF00032B9114A143212688A430F4B14331A60F8
:101B00000289012A06D10C4A143212680A430A4B90
:101B100014331A60427B012A06D1074A1C3212682C
:101B20000A43054B1C331A60034A126822F0010273
:101B3000014B1A6010BD00000066004070B50446FD
:101B40000D46002660692840002871D0B5F5807FD9
:101B50005CD010DC082D35D006DC012D20D0022D04
:101B600024D0042D72D127E0102D31D0202D35D076
:101B7000402D6BD138E0B5F5004F60D009DCB5F5EC
:101B8000007F49D0B5F5806F4CD0B5F5006F5DD1C1
:101B90004FE0B5F5803F2DD0B5F5003F56D12FE091
:101BA000A0682D4900F008FB064651E0E0680321DB
:101BB00000F002FB06464BE0E068082100F0FCFA6A
:101BC000064645E0E068102100F0F6FA06463FE0E0
:101BD0002069032100F0F0FA064639E02069082167
:101BE00000F0EAFA064633E02069102100F0E4FA3A
:101BF00006462DE06068082100F0DEFA064627E080
:101C00006068102100F0D8FA064621E0A0690121A1
:101C100000F0D2FA06461BE0A069022100F0CCFADF
:101C2000064615E0A069042100F0C6FA06460FE05A
:101C30000FE0A069702100F0BFFA064608E0606876
:101C4000042100F0B9FA064602E0FFE7002600BFD3
:101C500000E00026304670BD010101001AB1436961
:101C60000B43436102E043698B434361704730B5E6
:101C7000024600200023146824F002041460146853
:101C800044F00104146000E05B1C546804F001049B
:101C90001CB94FF6FF74A342F6D1546804F0010456
:101CA0000CB900206CE08C79012C04D1146844F04C
:101CB0008004146003E0146824F080041460CC797C
:101CC000012C04D1146844F04004146003E014684B
:101CD00024F0400414600C7A012C04D1146844F000
:101CE0002004146003E0146824F0200414604C7A8B
:101CF000012C04D1146844F01004146003E014684B
:101D000024F0100414608C7A012C04D1146844F07F
:101D10000804146003E0146824F008041460CC7A0A
:101D2000012C04D1146844F00404146003E0146826
:101D300024F0040414608C78A407CD7844EA056488
:101D40000D7944EA05444D7944EA05540D886D1E29
:101D50002C43D461146824F001041460002300E0D3
:101D60005B1C546804F001041CB14FF6FF74A342DD
:101D7000F6D1546804F001040CB1002000E0012009
:101D800030BD10B500F5D87303EB01131B6803F0E9
:101D900004031372137A53B900F5D87303EB0113DC
:101DA0001B6840F2FF7404EA5353136009E000F526
:101DB000D87303EB01131B686FF0604404EAD3038C
:101DC000536000F5D87303EB01131B6803F00203A3
:101DD000537200F5D87303EB01135B6803F00F0334
:101DE000937200F5D87303EB01135B681B0AD3747D
:101DF00000F5D87303EB01139B68D37200F5D87319
:101E000003EB01139B681C0A147300F5D87303EBF2
:101E100001139B681C0C547300F5D87303EB01137A
:101E20009B681B0E937300F5D87303EB0113DB68FB
:101E3000D37300F5D87303EB0113DB681C0A147429
:101E400000F5D87303EB0113DB681C0C547400F528
:101E5000D87303EB0113DB681B0E937421B9C368BD
:101E600043F02003C36003E0036943F020030361F0
:101E700010BD00218171C171017241728172C17204
:101E80008170C17003210171022141710121018022
:101E9000704710B502460020936803F08063B3F1E9
:101EA000806F00D110E0936803F00063B3F1006F1E
:101EB00001D1012008E0936803F08053B3F1805F03
:101EC00001D1022000E00420042874D002F5C07380
:101ED00003EB00131B6803F0010402F5C07303EB6E
:101EE00000131C600B7A7BB94B7A0C8843EA44538D
:101EF00002F5C07404EB00142468234302F5C07497
:101F000004EB0014236010E00B7A4C6843EAC4032E
:101F10004C7A234302F5C07404EB00142468234375
:101F200002F5C07404EB001423608B7A03F00F03F6
:101F30008B7202F5C07303EB00135B6823F00F0490
:101F400002F5C07303EB00135C6002F5C07303EB92
:101F500000135B688C7A234302F5C07404EB001411
:101F600063608B7B1C064B7B44EA03440B7B44EA97
:101F70000323CC7A234302F5C07404EB0014A3605E
:101F80008B7C1C064B7C44EA03440B7C44EA032311
:101F9000CC7B234302F5C07404EB0014E36002F52C
:101FA000C07303EB00131B6843F0010402F5C07318
:101FB00003EB00131C6010BD0EB500201049086033
:101FC00010480B460ECB0EC00121082003F026FB63
:101FD0000121082000F036F90B4801905320ADF89C
:101FE00000000020ADF80200ADF80800694607487F
:101FF00004F0EEF90121054804F0BAF90EBD000025
:10200000C0020020B46D0020FEFFFF7F000C0040E6
:1020100060E04FF4C8713048FEF747F92E4807F0EA
:1020200003FE4FF4C8712D48FEF73FF9002408E085
:102030002B4951F8240007F003FB2A4941F82400FA
:10204000641C072CF4D3002007F0FAFA2649086034
:10205000224807F07FFD002003F044FC23A100206C
:1020600003F0F6FC002003F03DFC2CA1002003F05F
:10207000EFFC002003F036FC174A36A1002003F0E5
:10208000E7FC002003F02EFC18A1002003F0E0FC88
:10209000002003F027FC30A1002003F0D9FC002031
:1020A00003F020FC0D4A2BA1002003F0D1FC0020FE
:1020B00003F018FC32A1002003F0CAFC4FF47A7040
:1020C00007F04CFC9FED3B0A00F03EFB9FED390A08
:1020D00000F01AFC9DE70000180B0020A80C00205F
:1020E00098080020380E0020FC0000202D2D2D2DFA
:1020F0002D2D2D2D2D2D2D2D2D2D2D2D2D2D2D2D10
:102100002D2D2D2D2D2D2D2D2D2D2D2D2D2D2D2DFF
:102110002D2D2D2D2D2D2D2D2D0D0A004E616D6592
:10212000202020205374617465205072696F726999
:102130007479202020202052656D61696E5374618E
:10214000636B202020202053657175656E63650DDB
:102150000A000000257300004E616D6520202020DC
:10216000202020202052756E436F756E74732020DE
:1021700020205573696E67526174650D0A00000076
:102180002D2D2D2D2D2D2D2D2D2D2D2D2D2D2D2D7F
:102190002D2D2D2D2D2D2D2D2D2D2D2D2D2D2D2D6F
:1021A0002D2D2D2D2D2D2D2D2D2D2D2D2D0D0A0AC5
:1021B0000000000000007A440246002002EA010309
:1021C0000BB1012000E00020704700004178052994
:1021D00002D006290ED106E00B490988491C09B234
:1021E000094A11800DE008494989491C09B2064A8B
:1021F000518106E00449498A491C09B2024A5182C8
:1022000000BF00BF70470000D40A0020012803D19E
:10221000034991ED000A7047024991ED000AFAE77F
:10222000140200203C020020012803D1034991ED53
:10223000000A7047024991ED000AFAE718020020EF
:102240004002002029B1064A52680243044B5A60FA
:1022500004E0034A52688243014B5A607047000011
:10226000002004E070B52D492D4800F0EDF900285C
:1022700053D000212A4800F0E7F8102229492A48C3
:10228000FDF7FAFF002432E027481038005D2128CE
:102290002BD1002507E0281923491039085C234970
:1022A0004855681C05B2102DF5DB21480088401CFC
:1022B00000B21F49088010211C4804F0F9FC18B135
:1022C0001A4801F003FC0FE01A480088401C00B2D5
:1022D00018490880B1F90000C11700EB917189100D
:1022E000A0EB8101134A118003E0601C04B2102CA2
:1022F000CADB00BF4FF08151094800F071F807496F
:10230000074800F087F810220749A1F11000FDF7F7
:10231000B3FF0121024800F097F870BD0080201043
:1023200040600240676D0020A26D0020826D002099
:10233000BA020020BC02002010B51249124800F079
:1023400083F9E8B10021104800F07EF80F490E48EB
:1023500000F046F80B490C4800F05CF80B210A48E5
:1023600000F0EEF900BF8021094804F0B8FB002816
:10237000F9D08021064804F085FB0648FFF726FFC8
:1023800010BD00002080002070600240200000206E
:10239000004C0040776D002010B50D490D4800F04D
:1023A00031F9012812D100BF40210B4804F097FBFE
:1023B0000028F9D00949074800F012F807490548F4
:1023C00000F028F84021044804F05CFB10BD000038
:1023D00000802020A0600240004400400000202037
:1023E0000246094B9A4201D2084801E006481038DB
:1023F00001F000531BB1064B0B40C36002E0044BDD
:102400000B4083607047000010640240006002408F
:102410007D0F7D0F0246094B9A4201D2084801E028
:102420000648103801F000531BB1064B0B40C36047
:1024300002E0044B0B4083607047000010640240D0
:10244000006002407D0F7D0F21B1026842F0010261
:10245000026003E0026822F001020260704700009F
:10246000016821F00101016000210160416081608B
:10247000C1600161212141614A49884204D13D2165
:10248000484A103A91608CE046491831884205D19B
:102490004FF47461434A103A916082E0414930310F
:1024A000884205D14FF474113E4A103A916078E0A9
:1024B0003C494831884205D14FF07461394A103A9D
:1024C00091606EE037496031884204D13649354A1F
:1024D000103AD16065E033497831884204D13349FC
:1024E000304A103AD1605CE02E499031884204D1E4
:1024F0002F492C4A103AD16053E02A49A83188422A
:1025000005D14FF03D51274A103AD16049E02949A1
:10251000884204D13D21274A083A116041E025490B
:102520001831884205D14FF47461224A083A11608B
:1025300037E020493031884205D14FF474111D4AEB
:10254000083A11602DE01B494831884205D14FF00F
:102550007461184A083A116023E0164960318842D4
:1025600004D11149134A121F11601AE01149783140
:10257000884204D10D490F4A121F116011E00D4924
:102580009031884204D10A490A4A121F116008E0BA
:102590000849A831884204D14FF03D51054A121F25
:1025A00011607047106002403D000020400F002085
:1025B00000003D201064024021B1026842F48022F4
:1025C000026003E0026822F480220260704722B1B8
:1025D000036843F40023036003E0036823F400234B
:1025E0000360016170470146486880B27047014648
:1025F00000200A6802F400220AB1012000E0002055
:102600007047000030B503460A46002000240B4DF9
:10261000AB4201D20A4901E00849103902F00055E5
:102620000DB14C6800E00C68064D2C4004EA020530
:102630000DB1012000E0002030BD00001064024018
:10264000006002407D0F7D0F70B50246002000241F
:102650000025124EB24201D2114B01E00F4B103B4C
:10266000104E0E4036B11E2606EAD124166806EA40
:10267000040502E0566906F0800501F000560EB12F
:102680005C6800E01C68084E344004EA010616B19C
:102690000DB1012000E0002070BD00001064024078
:1026A000006002403C0F3C0F7D0F7D0F10B501F024
:1026B00080034BB122B1436943F08003436103E0DF
:1026C000436923F08003436180290BD02AB103685A
:1026D00001F01E042343036004E0036801F01E04BC
:1026E000A343036010BD000010B500220268134B25
:1026F0001A40CC680B6823434C6923438C692343FD
:10270000CC6923430C6A23434C6A23438C6A2343DA
:102710004C6B23438C6B23431A430260426922F0C3
:102720000702D1E90B3423431A4342610B6943602A
:102730004B6883608B68C36010BD00003F801CF055
:10274000416070477047000010B52DED0A8BB0EE68
:10275000408A6A48B0F9000000EE100AB8EEC00ADC
:10276000C0EE080A6548C0ED010AB0F9080000EEA5
:10277000100AB8EEC00AC0EE080A6048C0ED030AAD
:10278000B0F9100000EE100AB8EEC00AC0EE080A58
:102790005A48C0ED050AB0F9180000EE100AB8EE6C
:1027A000C00AC0EE080A5548C0ED070AB0F920007B
:1027B00000EE100AB8EEC00AC0EE080A4F48C0ED9D
:1027C000090AB0F9280000EE100AB8EEC00AC0EEFF
:1027D000080A4A48C0ED0B0AB0F9300000EE100AB2
:1027E000B8EEC00AC0EE080A4448C0ED0D0AB0F9C0
:1027F000380000EE100AB8EEC00AC0EE080A3F48E2
:10280000C0ED0F0AB0F9400000EE100AB8EEC00AA1
:10281000C0EE080A3948C0ED110AB0F9480040007E
:1028200000EE100AB8EEC00AC0EE080A3348C0ED48
:10283000130AB0F95000400000EE100AB8EEC00ACA
:10284000C0EE080A2D48C0ED150AB0F9580000EE98
:10285000100AB8EEC00AC0EE080A2848C0ED170AF0
:1028600018EE100AFDF7D5FE41EC1A0B2349B1F919
:102870006000FDF7BDFE9FED220B53EC102BFDF722
:10288000D6FD53EC1A2BFDF744FEFDF7EDFE1B4978
:1028900048660846B0F86800322110FB01F000EEEF
:1028A000100AB8EEC00AC0EE080A1448C0ED1B0AB0
:1028B000B0F9700000EE100AB8EEC00AC0EE080AC7
:1028C0000E48C0ED1D0A00200C49088008810882CE
:1028D00008830884088508860887A1F84000A1F8C5
:1028E0004800A1F85000A1F85800A1F86000A1F834
:1028F0006800A1F87000BDEC0A8B10BDEC09002047
:102900000000000000002C401548B0F90000C0EBAA
:10291000C000400000EE900AF8EEE00A80EE801A57
:102920000F4880ED011AB0F90A00400000EE900A4D
:10293000F8EEE00A80EE801A094880ED031AB0F93B
:10294000120000EE900AF8EEE00A80EE801A0448C9
:1029500080ED051A002002490880488148827047AE
:10296000D40A002070B52DED028B04460D46002CD4
:1029700001DC002005E043F6CA20844200DB00E0D1
:102980002046404200EE100AB8EEC00A384880EDFA
:10299000030A002D01DC002005E043F6CA20854231
:1029A00000DB00E0284600EE100AB8EEC00A30480E
:1029B00080ED3A0AB0F90A0000EE900AF8EEE00A5B
:1029C000B0EE600A00212A480C3002F0E7FAB0EEBF
:1029D000408A9FED280AB4EEC08AF1EE10FA02D8C0
:1029E0009FED240A0BE09FED240AB4EEC08AF1EEBD
:1029F00010FA02DB9FED200A01E0B0EE480ABDEEBE
:102A0000C00A10EE100A00B21949A1F8D800084611
:102A1000B0F9E60000EE900AF8EEE00AB0EE600AC7
:102A200000211348E83002F0B9FAB0EE408A9FED79
:102A3000110AB4EEC08AF1EE10FA02D89FED0D0A29
:102A40000BE09FED0D0AB4EEC08AF1EE10FA02DB46
:102A50009FED090A01E0B0EE480ABDEEC00A10EE93
:102A6000100A01B20248A0F8B411BDEC028B70BD8F
:102A7000300F002000401CC600401C46F0B50A463E
:102A800000210023002400BF3DE0012505FA01F3E9
:102A9000156805EA03049C4234D105684F000326FB
:102AA000BE40B543056015794E00B5400668354314
:102AB00005601579012D02D01579022D16D1856892
:102AC0004F000326BE40B543856055794E00B540A2
:102AD000866835438560456801268E40B54345606C
:102AE000456896798E40B6B235434560C5684F005B
:102AF0000326BE40B543C560D5794E00B540C668D3
:102B00003543C560491C1029BFD3F0BDF0B5002383
:102B100000244D07ED0E02FA05F3CE1000F120055A
:102B200055F826504E07F70E0F26BE40B543CF107E
:102B300000F1200646F82750CE1000F1200555F888
:102B4000265045EA0304CE1000F1200545F8264042
:102B5000F0BD0246002053690B400BB1012000E09C
:102B600000207047418370470183704730B50346AA
:102B700013B94FF6FF7030BD09E013F8014B82EA3C
:102B80000400C0B2054D35F8100080EA2222081E6C
:102B9000A1F10101F1D11046EDE7000016A30008F4
:102BA00030B5034605E013F8010B80EA020404483F
:102BB000025D081EA1F10101F5D1104630BD0000F3
:102BC00017A5000870B50646B468F568F07838B106
:102BD00094ED020A84ED060A95ED020A85ED060AD7
:102BE0003078302808D196ED040A84ED060A96ED77
:102BF000050A85ED060A07E094ED020A84ED060A4F
:102C000095ED020A85ED060A94ED060A84ED1E0A8A
:102C100095ED060A85ED1E0A00221146304600F0A9
:102C200019FE70BD10B52DED048B1B4890ED040A04
:102C30001A4880ED060A184890ED050A184880EDFC
:102C4000060A184890ED040A174880ED060A154850
:102C500090ED050A154880ED060A114890ED060A28
:102C60001248D0ED060A30EE200A10EE101A08467F
:102C7000FDF7CFFC41EC190B9FED0D0B53EC102B26
:102C8000FDF747FC41EC180BFDF7EEFC0A49086024
:102C9000BDEC048B10BD0000781900203415002015
:102CA000481700205C1900200C1100202013002080
:102CB00000000000000000409401002010B50F4803
:102CC00090ED040A0E4880ED060A0C4890ED050AC6
:102CD0000C4880ED060A90ED020ADFED0B0A30EE9B
:102CE000200A0A4880ED000A0021094800F022F974
:102CF0009FED050A074880ED060A10BD78190020EF
:102D00003415002048170020000024C29401002040
:102D10005C1900202013002010B500210F4800F09E
:102D200009F90F48006820B900210E4800F002F9A7
:102D300004E00B480068401E094908600A48006822
:102D4000002805DD08480068401E0749086004E0C7
:102D50009FED060A064880ED000A10BD5C190020B0
:102D6000C40100207819002098010020EC5138BEE1
:102D70009401002010B54A480078302810D1494805
:102D800090ED000A484880ED060A484890ED000A98
:102D9000474880ED060A4FF47A70464908600CE017
:102DA0004448006820B900213D4800F0C3F804E021
:102DB00040480068401E3F4908603F48007830287E
:102DC00010D13E4890ED000A3D4880ED060A3D488E
:102DD00090ED000A3C4880ED060A4FF47A703B49BA
:102DE00008600CE03948006820B90021324800F042
:102DF000A1F804E035480068401E344908602E48B8
:102E00000078302845D13048D0ED060A90ED7F0A91
:102E1000B8EEC00A30EEC00AF8EE080AB4EEE00AD6
:102E2000F1EE10FA0FDDD0ED060A90ED7F0AB8EE54
:102E3000C00A30EEC00AF0EE080A30EE200A24483C
:102E400080ED000A2AE02048D0ED060A90ED800AC5
:102E5000B8EEC00A30EEC00AF1EE040AB4EEE00AA1
:102E6000F1EE10FA0FD2D0ED060A90ED800AB8EE1E
:102E7000C00A30EEC00AF1EE040A30EE600A1448CF
:102E800080ED000A0AE09FED130A114880ED000A68
:102E900004E09FED100A0E4880ED000A10BD00000E
:102EA0005C190020B80000200C110020B4000020A4
:102EB00020130020C001002078190020900000207D
:102EC000341500208C00002048170020C401002089
:102ED000940100200000000010B50F4890ED040A96
:102EE0000E4880ED060A0C4890ED050A0C4880ED6E
:102EF000060A90ED020ADFED0B0A30EE200A0A48BE
:102F000080ED000A0021094800F014F89FED050A41
:102F1000074880ED060A10BD5C1900200C11002046
:102F20002013002000002442940100207819002082
:102F3000481700202DE9F0412DED108B8AB0064690
:102F40000F46B468F568D4ED060A94ED800AB8EE31
:102F5000C00ADB4890ED001A30EE010AF4EEC00A18
:102F6000F1EE10FA08D894ED800AB8EEC00AD0ED60
:102F7000000A30EE200A1AE0D4ED060A94ED7F0A2A
:102F8000B8EEC00ACE4890ED001A30EE410AF4EED9
:102F9000C00AF1EE10FA08DB94ED7F0AB8EEC00A21
:102FA000D0ED000A30EE600A01E094ED060A84EDEF
:102FB000060A04F5FE7003C8A0EB0108B8F1000F83
:102FC00001DB414601E0C8F100010846FDF710FBB6
:102FD000CDE9020104F5FE7106C98818FDF708FB6A
:102FE00041EC1F0B9FEDB70B53EC102BFDF791FA43
:102FF00041EC1D0B94ED060A10EE101A0846FDF781
:1030000008FB41EC1E0B53EC1D2BFDF70AFA41ECBB
:103010001C0B9FEDAC0B53EC102BFDF708FACDE920
:1030200000019DED020B53EC102B9DED000B51ECBC
:10303000100BFDF76EFA9FEDA31BCDE904019DED8A
:10304000040B04F0D5F98DED060B9FEDA00B53ECAE
:10305000102B9DED060B51EC100BFDF7E5F941EC43
:103060001B0BB0EE4B0AF0EE6B0A04F0E9FFB0EE7A
:10307000409AF0EE609A92480068FDF7CAFA41EC77
:103080001A0B53EC192BFDF7D2F9CDE908019DED90
:10309000080B51EC100BFDF7E7FA08EE100A94ED5F
:1030A000060A8748D0ED000A70EE200A94ED7F0AE8
:1030B000B8EEC00AF4EEC00AF1EE10FA03DB707944
:1030C00008B10020707194ED060A7D48D0ED000A29
:1030D00070EE600A94ED800AB8EEC00AF4EEC00A01
:1030E000F1EE10FA03D8707908B901207071D4EDAF
:1030F000060A7079012802D1B0EE480A01E0B1EE6B
:10310000480A30EE800A84ED060A012F7ED1D5ED03
:10311000060A95ED800AB8EEC00A6E4890ED001AD6
:1031200030EE010AF4EEC00AF1EE10FA08D895ED7F
:10313000800AB8EEC00AD0ED000A30EE200A1AE08C
:10314000D5ED060A95ED7F0AB8EEC00A614890ED0C
:10315000001A30EE410AF4EEC00AF1EE10FA08DB74
:1031600095ED7F0AB8EEC00AD0ED000A30EE600A95
:1031700001E095ED060A85ED060A05F5FE7003C827
:10318000A0EB0108B8F1000F01DB414601E0C8F1F6
:1031900000010846FDF72CFA41EC1E0B95ED060ADE
:1031A00010EE101A0846FDF734FA9FED460B53EC6B
:1031B000102BCDE906019DED060B51EC100BFDF730
:1031C00036F953EC1E2BCDE908019DED080B51ECAF
:1031D000100BFDF79EF941EC1D0B9FED3A1BB0EE75
:1031E0004D0AF0EE6D0A04F003F9B0EE40CAF0EEBD
:1031F00060CA9FED360B53EC102B51EC1C0BFDF706
:1032000013F941EC1B0BB0EE4B0A00E04EE0F0EE80
:103210006B0A04F015FFB0EE40FAF0EE60FA2D48AC
:103220000068FDF7F6F941EC1A0B53EC1F2BFDF784
:10323000FEF841EC190BFDF717FA08EE900A95ED30
:10324000060A2448D0ED000A70EE200A95ED7F0AA8
:10325000B8EEC00AF4EEC00AF1EE10FA03DBB07962
:1032600008B10020B07195ED060A1A48D0ED000AA9
:1032700070EE600A95ED800AB8EEC00AF4EEC00A5E
:10328000F1EE10FA03D8B07908B90120B071D5ED8C
:10329000060AB079012802D1B0EE680A01E0B1EE69
:1032A000680A30EE800A85ED060A03E095ED020A11
:1032B00085ED060A0AB0BDEC108BBDE8F081000078
:1032C0008801002000000000000000400000000015
:1032D0000000F03F8C01002070B50446A568E66848
:1032E000074890ED000A86ED1E0A064890ED000A98
:1032F00085ED1E0A01220021204600F0ABFA70BDC8
:10330000A00100209C01002010B59848007870B3FF
:103310009FED970A974880ED000A012000F0A6FC77
:10332000954880ED000A9FED950A954880ED000ACA
:10333000012000F0A9FC934880ED000A9FED920A5D
:10334000924880ED000A002000F090FC904880ED4B
:10335000000A9FED900A904880ED000A002000F0DE
:1033600093FC8E4880ED000A0020804908700120FF
:1033700002F0BEF87F48D0ED000A30EE600ADFEDC3
:10338000880A80EE201A9FED870A21EE000A8648FF
:1033900080ED030A854890ED060A834880ED040A13
:1033A000834890ED000AF7EE000A30EEC00A7E482E
:1033B000D0ED030A20EE200AD0ED040A7C4890EDFF
:1033C000001A01EE200A7B4880ED000A774890ED54
:1033D000040ADFED790A20EE200ADFED780A80EE9C
:1033E000201A714880ED051A012003F07DFC644825
:1033F000D0ED000A30EE600ADFED690A80EE201A97
:103400009FED680A21EE000A6D4880ED030A6748C7
:1034100090ED080A6A4880ED040A6A4890ED000AB7
:10342000F7EE000A30EEC00A6548D0ED030A20EE40
:10343000200AD0ED040A634890ED001A01EE200A3C
:10344000614880ED000A594890ED050A5F48D0EDCB
:10345000050A30EE600ADFED580A20EE200ADFEDA3
:10346000570A80EE201A564880ED051A002002F017
:103470003FF84648D0ED000A30EE600ADFED480A1A
:1034800080EE201A9FED470A21EE000A504880ED99
:10349000030A504890ED060A4D4880ED040A44485E
:1034A00090ED000AF7EE000A30EEC00A4848D0ED71
:1034B000030A20EE200AD0ED040A3D4890ED001AE0
:1034C00001EE200A444880ED000A424890ED040ACB
:1034D000DFED390A20EE200ADFED380A80EE201AEF
:1034E0003B4880ED051A002003F0FEFB2A48D0ED92
:1034F000000A30EE600ADFED2A0A80EE201A9FED06
:10350000290A21EE000A354880ED030A314890ED82
:10351000080A324880ED040A2A4890ED000AF7EEC6
:10352000000A30EEC00A2D48D0ED030A20EE200A32
:10353000D0ED040A234890ED001A01EE200A284835
:1035400080ED000A234890ED050A2048D0ED050AD9
:1035500030EE600ADFED180A20EE200ADFED170AD0
:1035600080EE201A1D4880ED051A10BD4C02002087
:1035700000C0F344FC0100200C02002000409C44E9
:10358000000200201002002000D0944524020020F8
:103590003402002000309845280200203802002024
:1035A000000000460000B4430C110020B4080020C5
:1035B000440200201402002000003443DB0F494085
:1035C0002013002048020020180200206C0900206F
:1035D00034150020100900203C020020481700206C
:1035E0004002002000200C498870FF200870002055
:1035F000C8700871094888600948C86001200949F5
:103600008870FF2008700020C87008710648886024
:103610000648C86070470000781900203415002063
:10362000481700205C1900200C11002020130020F6
:103630000A202B49C1F8F0010020C1F8F8016FF011
:103640000A00C1F8F40120202649C1F8F001002049
:10365000C1F8F8016FF01900C1F8F4010A202049FF
:10366000C1F8FC010020C1F80402801FC1F800026B
:1036700011201C49C1F8FC010020C1F804026FF0C0
:103680001000C1F800020C201749C1F8F001002019
:10369000C1F8F8016FF00A00C1F8F4011B201349CA
:1036A000C1F8F0010020C1F8F8016FF01300C1F873
:1036B000F4010A200C49C1F8FC010020C1F8040201
:1036C000801FC1F800021B200849C1F8FC0100203E
:1036D000C1F804026FF01300C1F800027047000047
:1036E0000C11002020130020341500204817002062
:1036F00010B504464A48C078C0B14A4890ED020A65
:1037000080ED060A484890ED020A80ED060A474817
:1037100090ED020A80ED060A454890ED020A80ED20
:10372000060A03204349087043490870414800785D
:1037300002281BD14FF4FA70404908609CB93D48FB
:10374000007848B1012804D0022808D1FFF7B6FA62
:1037500008E0FFF7C1FB05E0FFF764FA02E0FFF7BE
:1037600009FB00BF04E0FFF705FB01E0FFF7D4FA17
:103770002D4890ED060A80ED1E0A2A4890ED060AB3
:1037800080ED1E0A2A4890ED060A2D48D0ED000A69
:1037900020EE200AD0ED000AB7EE001A71EE600AA2
:1037A000284890ED001A00EE810A214880ED060AB3
:1037B0001E4890ED060A2448D0ED000A20EE200AAB
:1037C000D0ED000AB7EE001A71EE600A1F4890EDC6
:1037D000001A00EE810A154880ED060A144890EDA3
:1037E000060A80ED1E0A114890ED060A80ED1E0AB9
:1037F0000F4890ED060A134880ED000A0B4890ED43
:10380000060A124880ED000A00221146104800F016
:1038100021F800221146024800F01CF810BD0000FB
:1038200078190020201300200C11002048170020D8
:1038300034150020A4010020A501002098010020DB
:10384000B8010020B0010020BC010020B40100201C
:103850005C1900202DE9F0472DED028B06468846C5
:103860009146B468F568B4F9EC0108EE900AD4ED1D
:103870001E0A94ED7D0AB8EEC00AF4EEC00AF1EE1D
:1038800010FA04D894ED7D0AB8EEC00A11E0D4ED28
:103890001E0A94ED7C0AB8EEC00AF4EEC00AF1EEFE
:1038A00010FA04DB94ED7C0AB8EEC00A01E094ED56
:1038B0001E0A84ED1E0AD4ED020AB0EE600A002151
:1038C00004F1780001F06AFB84ED070AD4ED050AE3
:1038D000B0EE600A002104F11C0001F05FFBB0EEC5
:1038E000408A9FED590AB4EEC08AF1EE10FA02D870
:1038F0009FED550A0BE09FED550AB4EEC08AF1EE3C
:1039000010FA02DB9FED510A01E0B0EE480ABDEE6D
:10391000C00A10EE100A00B2A4F8EC0194ED840A7B
:10392000F7EE000A70EEC00AB4F9EC0100EE100ADE
:10393000B8EEC00A20EE800AD4ED840AB8EEE81A88
:1039400000EE810ABDEEC00A10EE100A00B2A4F823
:10395000EC01B5F9EC71D5ED1E0A95ED7D0AB8EED6
:10396000C00AF4EEC00AF1EE10FA04D895ED7D0A13
:10397000B8EEC00A11E0D5ED1E0A95ED7C0AB8EE4E
:10398000C00AF4EEC00AF1EE10FA04DB95ED7C0AF1
:10399000B8EEC00A01E095ED1E0A85ED1E0AD5EDD0
:1039A000020AB0EE600A002105F1780001F0F6FA93
:1039B00085ED070AD5ED050AB0EE600A002105F194
:1039C0001C0001F0EBFAB0EE408A9FED1F0AB4EE46
:1039D000C08AF1EE10FA02D89FED1B0A0BE09FEDB2
:1039E0001B0AB4EEC08AF1EE10FA02DB9FED170A53
:1039F00001E0B0EE480ABDEEC00A10EE100A00B2B7
:103A0000A5F8EC0195ED840AF7EE000A70EEC00A05
:103A1000B5F9EC0100EE100AB8EEC00A60EE800ABB
:103A200095ED841A00EE107AB8EEC00A41EE000A55
:103A3000BDEEE00A10EE100A00B2A5F8EC01BDECF4
:103A4000028BBDE8F08700000060EAC60060EA462D
:103A500070B50446A568E668E07840B196ED020AC4
:103A600086ED1E0A95ED020A85ED1E0A21E096ED0F
:103A70001E0A13480088A0F5806000EE900AF8EE58
:103A8000E00A104890ED001A01EE200A86ED1E0AA9
:103A900095ED1E0A0A484088A0F5806000EE900A65
:103AA000F8EEE00A084890ED001A01EE600A85ED94
:103AB0001E0A002211462046FFF7CCFE70BD000012
:103AC000006D002084010020800100200CB54178A9
:103AD00003293ED0042902D006297CD121E0418867
:103AE0000191416800EE101A017A3C4A1170417A46
:103AF0001176BDF90410494200EE901AF8EEE00A82
:103B00009FED371AC0EE811A3649C1ED001AF8EE62
:103B1000C00A9FED331AC0EE811A3349C1ED001A75
:103B200059E0324982780A703149C2780A703149C5
:103B300082880A80304942790A703049B1F86810A9
:103B4000491C09B22D4AA2F8681000212C4A1160C4
:103B500041E04288019242680092027A1F4B1A703B
:103B6000BDF9042000EE902AB8EEE01ADFED1C1A31
:103B7000C1EE210A234A92ED001A70EE810AF1EE9D
:103B8000600A184AC2ED000ADDED000A1E4A92EDF5
:103B9000001A70EE810A144AC2ED000A114AD2EDF1
:103BA000000AFDEEE00A10EE902A11B20E4AD2EDA4
:103BB000000AB0EE600A154AD0F80A305361827BE1
:103BC000064B1A760D4AB2F84020521C12B20B4B2B
:103BD000A3F8402000BF00BF0CBD000078190020F2
:103BE0000000C842900000208C000020000100204E
:103BF000010100207000002074000020EC0900206A
:103C00008008002094000020980000206C0900200B
:103C100000218268A2F8EC11C268A2F8EC1170478A
:103C200010B52DED020B21200C49087006204870BC
:103C30000B480078887008460099C0F803100B21E3
:103C4000FDF7E8F901210748FEF7FEFB0648408A28
:103C5000401C00B2044948821CBD0000776D002062
:103C6000A401002070600240D40A0020012803D182
:103C7000034991ED160A7047024991ED160AFAE7D9
:103C8000B408002010090020012803D1034991ED58
:103C9000150A7047024991ED150AFAE7B4080020A9
:103CA0001009002000BFFEE79FED0C0A81ED070A16
:103CB0009FED0B0A81ED080A9FED0A0A81ED090AC2
:103CC0009FED090A81ED0A0A91ED0A0ADFED070A64
:103CD00080EE801A81ED061A704700009C53C9BB24
:103CE000BD2F2F3CA2EB823C28901A41E17A1C4167
:103CF00010B5044654F8EC0F90ED000A834880EDAF
:103D0000000A206890ED010A814880ED000A2068D1
:103D100090ED020A7F4880ED000A54F8EC0990ED1E
:103D2000030A7D4880ED000A7848D0ED000A60EE75
:103D3000A00A774890ED001AD0ED001A41EE210A52
:103D4000744890ED001AD0ED001A41EE210A724835
:103D500090ED001AD0ED001A41EE210AB0EE600A93
:103D600004F09EFC6D4880ED000A002012E0D4F8BB
:103D7000EC1001EB800191ED000A6849D1ED000AD9
:103D800020EE200AD4F8EC1001EB800181ED000A4E
:103D9000411CC8B20428EADB614890ED6F0A5C4818
:103DA000D0ED000A20EE200AF0EE000A80EE201A84
:103DB000F834A06880ED041A594890ED6F0A554810
:103DC000D0ED000A20EE200AF0EE000A80EE201A64
:103DD000A06880ED051A524890ED6F0A4B48D0ED6F
:103DE000000AF1EE600A20EE200AF0EE000A80EEF2
:103DF000201AA06880ED0A1A494890ED6F0A4648DB
:103E0000D0ED000A20EE200AF0EE000A80EE201A23
:103E1000A06880ED0B1A424890ED6F0A3E48D0ED45
:103E2000000AF1EE600A20EE200AF0EE000A80EEB1
:103E3000201AA06880ED101A394890ED6F0A3348B7
:103E4000D0ED000AF1EE600A20EE200AF0EE000A42
:103E500080EE201AA06880ED111A314890ED6F0AAB
:103E60002C48D0ED000A20EE200AF0EE000A80EE89
:103E7000201AA06880ED161A294890ED6F0A244890
:103E8000D0ED000AF1EE600A20EE200AF0EE000A02
:103E900080EE201AA06880ED171A206890ED1C0AA9
:103EA0001F48D0ED740A80EE201A206880ED1C1A9D
:103EB000206890ED230A1A48D0ED740A80EE201A8B
:103EC000206880ED231A54F8F80990ED1C0ADFED04
:103ED000150AB4EEE00AF1EE10FA05DD9FED110AC5
:103EE000D4F8F80080ED1C0AD4F8F80090ED230A0D
:103EF000DFED0C0AB4EEE00AF1EE10FA05DD9FEDFD
:103F0000090AD4F8F80080ED230A10BD84030020CC
:103F1000880300208C0300209003002094030020DD
:103F2000606E002000401C4610B52DED068BF0EEB3
:103F3000408AB0EE60AAB0EE419AB0EE618AF0EE2F
:103F4000429A01203A4908700846C0ED6C8A80ED1B
:103F50006DAA80ED6E9A9FED370A80ED730A0020FE
:103F600081F838010A46C2F84001C2F84401002134
:103F7000C2F84811C2F84C11B7EE000AB4EEC08A7C
:103F8000F1EE10FA03DDB7EE000AB0EE408A2848E1
:103F900080ED748AC0ED649A032300220621001D7F
:103FA00000F0C8FB244B01221146A3F10800FCF7E6
:103FB00056FDB7EE000A1E48D0F8EC0080ED000A6E
:103FC0009FED1E0A1A48D0F8EC0080ED010A9FED23
:103FD0001B0A1748D0F8EC0080ED020A9FED170A83
:103FE0001348D0F8EC0080ED030A15491048C0F8DA
:103FF000D0101449C0F8D4101349C0F8D810134990
:10400000C0F8DC10012180F82E1080F82F10014636
:104010009022D1F804010E49FCF72EF904499022B0
:10402000D1F8FC000B49FCF727F9BDEC068B10BD5D
:10403000606E002077CC2B3228700020000000003A
:1040400059400008F13C00088D400008B5410008C7
:1040500018A60008E402002010B5044654F8F81F22
:1040600090220748FCF708F948220648616AFCF7E5
:1040700003F96169F83C48220348FCF7FDF810BDDC
:10408000E4020020407000208870002010B5044633
:1040900054F8EC0F90ED000AF0EE000A20EE200A32
:1040A0003F4880ED000A206890ED010AF0EE000A1A
:1040B00020EE200A3B4880ED000A206890ED020ABD
:1040C000F0EE000A20EE200A374880ED000A206852
:1040D00090ED030AF0EE000A20EE200A334880ED4E
:1040E000000A14F8DE2C324B1B885A4314F8E03CCB
:1040F00002FB03F1206AFCF7D8F82B4890ED000A88
:10410000B1EE400A206A80ED000A284890ED000ACE
:10411000206A80ED010A224890ED000AB1EE400AC3
:10412000206A80ED020A1F4890ED000A206A80EDA7
:10413000030A1C4890ED000A206A80ED060A184820
:1041400090ED000A206A80ED070A184890ED000AF9
:10415000206A80ED080A144890ED000A206A80ED7C
:10416000090A0F4890ED000A206A80ED0C0A0D48FC
:1041700090ED000AB1EE400A206A80ED0D0A0A486F
:1041800090ED000AB1EE400A206A80ED0E0A074861
:1041900090ED000A206AEC3C80ED0F0A10BD000093
:1041A000980300209C030020A0030020A40300200B
:1041B000E002002070B52DED028B044604F1800171
:1041C00004F17800FCF7BCFE84F8C800B4F878006D
:1041D000A4F8A8005A20015BAA20015304F1A80208
:1041E00004F1580104F17800FCF7B8FD84F8C80028
:1041F000B4F8A800A4F8B0008220015BB2200153FB
:1042000004F1B00204F1800104F1A800FCF7A6FD5E
:1042100084F8C800B4F89000A4F8A0009220015BD4
:10422000A220015304F1A00204F1900104F1B000B6
:10423000FCF7B8FB84F8C80004F1B00104F1A00059
:10424000FCF712FCAC342077206C90ED000AFE489D
:1042500080ED000A206C90ED010AFC4880ED000A18
:10426000206C90ED020AFA4880ED000A206C90ED77
:10427000030AF84880ED000A34F8340CA081AC3C05
:104280000121BA200153F14890ED000AF148D0ED28
:10429000000A20EE200AEC48D0ED000AEC4890ED30
:1042A000001A00EEC10AF0EE000A20EE200AD4F84F
:1042B0002C0180ED000AE44890ED000AE348D0EDBF
:1042C000000A20EE200AE248D0ED000AE14890ED15
:1042D000001A00EE810AF0EE000A20EE200AD4F85F
:1042E0002C0180ED010AD84890ED000A20EE000A6A
:1042F000D648D0ED000A90ED001A00EEC10AD4486D
:10430000D0ED000A90ED001A00EEC10AD148D0EDC0
:10431000000A90ED001A00EE810AD4F82C0180ED1D
:10432000020A002512E0D4F82C0100EB850090ED84
:10433000000AB0EEC00AB0EE408A02F0CBFFC648D9
:1043400000EB850080ED000A681CC5B2032DEADB96
:10435000B4F84800A4F8C0000121C220015304F1C0
:10436000C00204F1B80104F14800FCF78BFD84F8A9
:10437000C800B4F8C000A4F8A8000121AA20015385
:1043800004F1A80204F1C00104F1B000FCF7E6FC5E
:10439000B8342074012020802189B83CBA20015310
:1043A00004F1B80104F1C000FCF7CAFD84F8C800AC
:1043B000A94A3C3204F1A80104F1B800FCF7CEFC94
:1043C00084F8C800A54890ED720AD0ED730AB6EEE5
:1043D000001A60EE810AB4EEE00AF1EE10FA03D2A0
:1043E00001209E4981F838019C4890ED720AD0ED79
:1043F000730AB4EEE00AF1EE10FA46DD90F83801E7
:10440000002842D0954890F8390168B19348D0F817
:104410004011D0F84401491C40F100008F4AC2F815
:104420004011C2F8440105E000208C4AC2F8400166
:10443000C2F844018948D0F84031D0F84421002026
:10444000D3F13201904106D20020844981F838012D
:1044500084F82C004AE0237B814D2D8803FB05F274
:10446000D4E93A01FBF708FF237B7D4D2D886B4390
:10447000257B03FB05F2D4E93E01FBF7FDFE01209D
:1044800084F82C00BDEC028B70BD744890ED720A6C
:10449000D0ED730A9FED731A60EE810AB4EEE00A64
:1044A000F1EE10FA14DD90F8380188B16B4890ED08
:1044B000730AD0ED720A30EE600AD0ED730A9FEDF8
:1044C0006A1A60EE810A80EE201A80ED671A04E015
:1044D000B7EE000A614880ED670A00215F4AC2F822
:1044E0004011C2F84411002084F82C00B4F85800A0
:1044F000A4F8A8008220015BAA20015304F1A802BD
:1045000004F1800104F15800FCF728FC84F8C8008D
:1045100004F1980204F1B00104F1A800FCF71EFCBC
:1045200084F8C800002012E0D4F81C1101EB8001CF
:1045300091ED000A4949D1ED670A20EE200AD4F82E
:104540001C1101EB800181ED000A411CC8B2B4F8D6
:1045500098109A22125B51438142E5DC042025E049
:1045600000211FE0021F3C4B03EB8202D2ED000A48
:104570009FED3E1A80EE810A00EB40030B44D4F815
:104580001C2102EB8302D2ED000A20EE200A00EB90
:1045900040030B44D4F81C2102EB830282ED000A95
:1045A0004A1CD1B20329DDDB411CC8B20628D7DB87
:1045B000B4F89800A4F8B8000121BA20015304F11E
:1045C000B80204F1C00104F19800FCF7C7FB84F8BD
:1045D000C800224890F83801A0B3042058E0BC215C
:1045E000095901EB800191ED000A1C49D1ED6F0AD8
:1045F0009FED1F1A60EE810AB4EEE00AF1EE10FAA8
:104600000BDD91ED6F0ADFED1A0A20EE200ABC21C6
:10461000095901EB800181ED000ABC21095901EB28
:10462000800191ED000A0D49D1ED6F0A9FED111A3D
:1046300060EE810AB4EEE00AF1EE10FA26D291EDB6
:104640006F0A19E026E00000A8030020AC03002058
:10465000B0030020B4030020E46F0020606E00204F
:10466000E0020020CDCCCC3D6666663FDA0FC93F44
:104670000AD7233C0AD723BC5FED020A20EE200AAA
:10468000BC21095901EB800181ED000A411CC8B22F
:104690000628A4DB9FED080ABC20005980ED030A20
:1046A00004F1300204F1B80104F13800FCF77AF9A2
:1046B00084F8C80000BFE5E60000000010B5B7EEC2
:1046C000000A164880ED010AB7EE000A80ED020AE2
:1046D000B7EE000A80ED030A9FED110A80ED040A8F
:1046E0009FED0F0A80ED050A9FED0D0A80ED060A89
:1046F00001200A4908709FED0A2AF7EE001A9FED83
:10470000091ADFED090AB2EE040AFFF70DFC9FED6E
:10471000070A074880ED100A10BD0000406E002017
:10472000000000008096184B6F12833A96430B3CB2
:10473000C06D00200FB583B00420FE49088008201A
:10474000FD490880DDE90310087303990598487353
:1047500003990698887300210398017406980290C3
:1047600003F0CEFF039948610698029003984069D0
:1047700001900299FBF799FDEE480088069948439D
:10478000029003F0BDFF03998861EA48008806990A
:10479000484302900398806901900299FBF785FDD8
:1047A000E448008806994843029003F0A9FF039962
:1047B000C861E04800880699484302900398C069A0
:1047C00001900299FBF771FDDA480088049948438B
:1047D000029003F095FF03990862D6480088049977
:1047E000484302900398006A01900299FBF75DFD2F
:1047F0000698029003F084FF03994862069802909D
:104800000398406A01900299FBF74FFDC948008860
:1048100004994843029003F073FF03990860C54868
:104820000088049948430290039800680190029917
:10483000FBF73BFDBF48008806994843029003F010
:104840005FFF03994860BB4800880699484302907F
:104850000398406801900299FBF727FDB54800884E
:1048600005994843029003F04BFF03998860B148D3
:104870000088059948430290039880680190029946
:10488000FBF713FDAB48008804994843029003F0FE
:1048900037FF0399C1F8E800A64800880499484307
:1048A00002900398D0F8E80001900299FBF7FDFC14
:1048B0000398D0F8E80002900398007B0190012251
:1048C0000146DDE902303030FCF7C9F8994800882C
:1048D00004994843029003F013FF0399C1F8EC00D8
:1048E000944800880499484302900398D0F8EC005B
:1048F00001900299FBF7D9FC0398D0F8EC000290E4
:104900000398007B019001220146DDE90230383036
:10491000FCF7A5F8059818B3864800880599484320
:10492000029003F0EDFE0399C1F8F0008148008881
:104930000599484302900398D0F8F000019002993D
:10494000FBF7B3FC0398D0F8F00002900398407B8B
:10495000019001220146DDE902304030FCF77FF88A
:104960007448008806994843029003F0C9FE0399F1
:10497000C1F8F4006F4800880699484302900398F4
:10498000D0F8F40001900299FBF78FFC0398D0F85F
:10499000F40002900398807B019001220146DDE93A
:1049A00002304830FCF75BF86248008804994843BD
:1049B0004843029003F0A4FE0399C1F8F8005D4853
:1049C000008804994843484302900398D0F8F800BF
:1049D00001900299FBF769FC0398D0F8F800029067
:1049E0000398007B01900398007B00900146DDE96D
:1049F00002305030019AFCF732F84E480088049992
:104A000048434843029003F07BFE0399C1F8FC0041
:104A10004848008804994843484302900398D0F8D6
:104A2000FC0001900299FBF740FC0398D0F8FC00D1
:104A300002900398007B01900398007B0090014650
:104A4000DDE902305830019AFCF709F8394800884E
:104A5000049948434843029003F052FE0399C1F879
:104A6000000134480088049948434843029003F009
:104A700047FE0399C1F804012E4800880499484371
:104A8000484302900398D0F8000101900299FBF787
:104A90000CFC284800880499484348430290039836
:104AA000D0F8040101900299FBF7FFFB0398D0F8BE
:104AB000000102900398007B01900398007B009016
:104AC0000146DDE902306030019AFBF7C8FF039828
:104AD000D0F8040102900398007B01900398007BBA
:104AE00000900146DDE902306830019AFBF7B7FF1C
:104AF000059878B30F4800880499484305994843BE
:104B0000029003F0FDFD0399C1F8080109480088EF
:104B1000049948430599484302900398D0F8080146
:104B200001900299FBF7C1FB0398D0F808010290AD
:104B3000039803E0E0020020E2020020407B0190A5
:104B40000398007B00900146DDE902307030019A45
:104B5000FBF785FFB9480088069948430499484304
:104B6000029003F0CDFD0399C1F80C01B348008811
:104B70000499484306994843029003F0C1FD039904
:104B8000C1F81001AD48008806994843049948438C
:104B900002900398D0F80C0101900299FBF785FB75
:104BA000A648008804994843069948430290039810
:104BB000D0F8100101900299FBF777FB0398D0F829
:104BC0000C0102900398007B01900398807B009079
:104BD0000146DDE902307830019AFBF740FF039887
:104BE000D0F8100102900398807B01900398007B1D
:104BF00000900146DDE902308030019AFBF72FFF7B
:104C00008E480088049948434843029003F078FD99
:104C10000399C1F81401894800880499484348431E
:104C200002900398D0F8140101900299FBF73DFB24
:104C30000398D0F8140102900398007B0190039828
:104C4000007B00900146DDE902308830019AFBF7D5
:104C500006FF7A480088069948434843029003F0CB
:104C60004FFD0399C1F8180174480088069948431C
:104C7000484302900398D0F8180101900299FBF77D
:104C800014FB0398D0F8180102900398807B0190E0
:104C90000398807B00900146DDE902309030019A54
:104CA000FBF7DDFE654800880499484306994843B0
:104CB000029003F025FD0399C1F81C015F480088AC
:104CC000049948430699484302900398D0F81C0180
:104CD00001900299FBF7E9FA0398D0F81C010290C1
:104CE0000398807B01900398007B00900146DDE9EA
:104CF00002309830019AFBF7B2FE0398007B4F49CF
:104D0000098848430399097B4843029003F0F8FC63
:104D10000399C1F820010398007B4849098848435A
:104D20000399097B4843029003F0EAFC0399C1F818
:104D300024010398007B4149098848430399097B72
:104D40004843029003F0DCFC0399C1F82801039862
:104D5000007B3A4909884843029003F0D1FC03994B
:104D6000C1F82C010398007B34490988484302901C
:104D700003F0C6FC0399C1F830010398D0F8200174
:104D800002900398007B01900398007B00900146FD
:104D9000DDE90230A030019AFBF761FE0398D0F8FC
:104DA000240102900398007B01900398007B0090FF
:104DB0000146DDE90230A830019AFBF750FE039866
:104DC000D0F8280102900398007B01900398007BA3
:104DD00000900146DDE90230B030019AFBF73FFE5A
:104DE0000398D0F82C0102900398007B01900122D7
:104DF0000146DDE90230B830FBF731FE0398D0F808
:104E0000300102900398007B019001220146DDE908
:104E10000230C030FBF723FE0021039880F82810F1
:104E2000039880F82910039880F82A10039880F8D6
:104E30002B10039880F82C1007B000BDE002002072
:104E40001CB50121042000F0D9FB4FF4C0400090B4
:104E500001208DF8040003208DF8050000208DF856
:104E600006008DF8070069460448FDF707FE4FF479
:104E7000C0410248FDF776FE1CBD0000000802405C
:104E800000BFFEE77047000070B5002100230F222D
:104E9000C4781CB3174C246804F4E064C4F5E064DF
:104EA000C4F30721C1F10404E3B20A4144789C40F1
:104EB000E1B28478144021430C07210E0E4C057892
:104EC0006155047804F01F050124AC4005786D118C
:104ED000AD0005F1E025C5F8004109E0047804F0D3
:104EE0001F050124AC40054D0678761145F8264093
:104EF00070BD00000CED00E000E400E080E100E0A7
:104F000002490143024A1160704700000000FA059F
:104F10000CED00E010B504462078212833D10B2198
:104F2000204601F0A5FE70B3174821680160616852
:104F3000416021890181A17A8172D0F8050013496D
:104F400008601148B0F9030000EE100AB8EEC00A7C
:104F5000B1EE400ADFED0E0A80EE201A0D4880ED1A
:104F6000001A0948407800F0070018B130200A49BB
:104F7000087002E0FF20084908700348407800F0FC
:104F800007000549087610BDF3100020B40000208A
:104F90000000C842B80000205C190020F0EE400A72
:104FA00090ED000A30EE600A80ED080A90ED080AE4
:104FB00090ED071A30EE410A80ED0A0A90ED0F0AD3
:104FC00080ED100A41B990ED090A90ED081A30EE13
:104FD000010A80ED090A1CE090ED080AB5EEC00A4E
:104FE000F1EE10FA02DD90ED080A03E090ED080AF8
:104FF000B1EE400A90ED0C1AB4EEC10AF1EE10FACF
:1050000007D890ED090A90ED081A30EE010A80EDFC
:10501000090A90ED080A80ED070A90ED090A90ED63
:105020000B1AB4EEC10AF1EE10FA04DB90ED0B0A94
:1050300080ED090A10E090ED090A90ED0B1AB1EE2F
:10504000411AB4EEC10AF1EE10FA05D890ED0B0A40
:10505000B1EE400A80ED090A90ED040A90ED081ABD
:1050600020EE010A80ED0D0A90ED050A90ED091A77
:1050700020EE010A80ED0E0A90ED060A90ED0A1A64
:1050800020EE010A80ED0F0A90ED0F0A90ED161A3E
:1050900020EE010A90ED101AD0ED161AB7EE002A94
:1050A00072EE611A01EE210A80ED0F0A90ED0D0AF1
:1050B00090ED0E1A30EE010A90ED0F1A30EE010A53
:1050C00070470000B3EE000AB14880ED220A9FED60
:1050D000B10A80ED230AB3EE040A80ED240A9FEDA5
:1050E000AE0A80ED290AB0EE000A80ED320A9FED8B
:1050F000AB0A80ED330AB6EE000A80ED340A9FED6C
:10510000A80A80ED2F0A9FEDA70A80ED0B0A9FEDFC
:10511000A60A80ED0C0A9FEDA50A80ED0D0A9FED11
:10512000A40A80ED120AB3EE040A80ED1B0AB1EE68
:10513000080A80ED1C0A9FED990A80ED1D0A9FED7B
:105140009D0A80ED180A9FED9C0A80ED820A9FED72
:105150009A0A80ED830A9FED8F0A80ED840A9FED05
:10516000970A80ED480A9FED960A80ED490A9FED67
:10517000920A80ED4A0A9FED8E0A80ED3C0AB3EE5A
:105180000C0A80ED440AB1EE080A80ED450A9FED55
:10519000890A80ED410AB7EE000A80ED4E0AB2EEB0
:1051A000040A80ED4F0A9FED870A80ED500A9FEDBB
:1051B000820A80ED510AB3EE000A834880ED220A8C
:1051C0009FED7D0A80ED230A9FED7B0A80ED240A86
:1051D0009FED790A80ED290AB6EE000A80ED340AC7
:1051E0009FED7A0A80ED2F0A9FED780A80ED0B0A79
:1051F0009FED770A80ED0C0A9FED6F0A80ED0D0A96
:105200009FED740A80ED120AB3EE0C0A80ED1B0AC2
:10521000B1EE0C0A80ED1C0A9FED660A80ED180ABB
:105220009FED650A80ED820A9FED630A80ED830A97
:10523000B3EE000A684880ED220A9FED680A80ED0F
:10524000230AB2EE040A80ED240A9FED650A80ED80
:10525000290AB6EE000A80ED340A9FED510A80ED6E
:105260002F0A9FED600A80ED0B0A9FED5F0A80ED2B
:105270000C0A9FED5E0A80ED0D0A9FED5D0A80ED40
:10528000120AB3EE040A80ED1B0AB1EE080A80EDA3
:105290001C0A9FED480A80ED180AB6EE000A80ED60
:1052A0001D0A9FED450A80ED820A9FED430A80EDBD
:1052B000830AB6EE000A80ED840A9FED4E0A80ED67
:1052C000480A9FED4D0A80ED490AB1EE000A80EDD3
:1052D0004A0A9FED370A80ED3C0AB3EE0C0A80EDD6
:1052E000440AB1EE080A80ED450A9FED320A80EDCE
:1052F000410AB7EE000A80ED4E0AB2EE040A80EDD4
:105300004F0A9FED300A80ED500A9FED2B0A80ED89
:10531000510AB2EE0E0A394880ED220A9FED260AA4
:1053200080ED230A9FED240A80ED240A9FED220AD6
:1053300080ED290AB6EE000A80ED340A9FED230ABB
:1053400080ED2F0A9FED2E0A80ED0B0AB7EE080ABA
:1053500080ED0C0A9FED180A80ED0D0A9FED1D0AE5
:1053600080ED120AB3EE0C0A80ED1B0AB1EE0C0AB6
:1053700080ED1C0A9FED0F0A80ED180A9FED0E0AC2
:1053800080ED820A9FED0C0A80ED830A70470000D1
:105390000C110020CDCC4C3E00004842CDCCCC3E80
:1053A0000000FA42000011439A9919400000164586
:1053B0000000FA4400C0DA46000000000000164376
:1053C000CDCCCC3FCDCCCC3D2013002000004843B9
:1053D0009A99D93F0000614434150020AE47613EE0
:1053E0000000704200002A43CDCC4C400000C8446D
:1053F00000002F4500005C439A99B93F48170020F0
:1054000000002043B3EE090A304880ED070A9FED03
:10541000300A80ED080A9FED2E0A80ED090A9FED03
:105420002D0A80ED0E0A9FED2A0A80ED030A9FEDFA
:105430002A0A80ED140AB3EE090A80ED3E0A9FEDB8
:10544000240A80ED3F0A9FED220A80ED400A9FED7D
:10545000210A80ED450A9FED1E0A80ED3A0A9FED74
:105460001E0A80ED4B0AB2EE010A1C4880ED070AC5
:10547000B6EE000A80ED080A9FED150A80ED090AD4
:105480009FED170A80ED0E0A9FED130A80ED140AB6
:105490009FED140A80ED1E0A9FED0D0A80ED1F0A94
:1054A0009FED110A80ED200A9FED090A80ED250A83
:1054B000008800EE100AB8EE400A084880ED1A0A8B
:1054C0009FED0A0A80ED2B0A70470000300F002084
:1054D000000000000000484400007A46540E0020FE
:1054E000000016443333B33ECDCC4C3E00BA5B498A
:1054F000012805D1054991ED7A0AB8EEC00A704736
:10550000034991ED7A0AB8EEC00AF8E70C110020C1
:10551000341500202DE9F04104460D4616461F467D
:105520002F4800682F49086004F09EFD2C49086050
:10553000084600682B490968401A2B49086000207A
:105540002A49087248720820887240F2FF100860E9
:105550002748854200DC05E047F23050854200DBF9
:1055600000E0284605462248844200DC05E047F278
:105570003050844200DB00E0204604461C4887424D
:1055800000DC05E047F23050874200DB00E038469F
:1055900007461748864200DC05E047F23050864255
:1055A00000DB00E030460646280A1049C87208466B
:1055B0000573390A41738773210AC1730474310A70
:1055C000417486740B48008808B9012000E000206F
:1055D0000849088005490848FCF75BFCBDE8F081F4
:1055E000F0000020EC000020F4000020C00A0020A1
:1055F000D08AFFFFE80000200068004029B1064A79
:1056000012680243044B1A6004E0034A12688243A2
:10561000014B1A60704700003038024029B1064A39
:1056200012680243044B1A6004E0034A1268824382
:10563000014B1A60704700004038024029B1064A09
:1056400012680243044B1A6004E0034A1268824362
:10565000014B1A607047000020380240F0B500216D
:1056600000220024022500260223324F3F6807F063
:105670000C0121B1042905D0082937D105E02E4FAE
:10568000076036E02D4F076033E02A4F3F1F3F6829
:10569000C7F38056274F3F1F3F6807F03F036EB1A7
:1056A000264FB7FBF3F7DFF88CC0ACF1040CDCF845
:1056B00000C0CCF3881C07FB0CF40CE01E4FB7FBBA
:1056C000F3F7DFF870C0ACF1040CDCF800C0CCF3E9
:1056D000881C07FB0CF4174F3F1F3F68C7F30147B7
:1056E0007F1C7D00B4FBF5F7076002E0124F0760F6
:1056F00000BF00BF0F4F3F6807F0F0010909104FCE
:105700007A5C0768D74047600A4F3F6807F4E0516A
:10571000890A0B4F7A5C4768D7408760054F3F681E
:1057200007F46041490B064F7A5C4768D740C76071
:10573000F0BD0000083802400024F40000127A0096
:105740001400002010B54FF480410848FDF701FA1D
:1057500028B94FF480410548FDF706FA04E04FF4FC
:1057600080410248FDF7FEF910BD0000000802402C
:1057700010B5044604B910BD2078617840EA0120D4
:10578000C0F30A001C4908806078C010A17840EA84
:105790004110C0F30A0018494880A0788011E178D0
:1057A00040EA8100217940EA8120C0F30A001249D1
:1057B000888020794010617940EAC110C0F30A0066
:1057C0000D49C8806079800908726079C0F30110C2
:1057D000487201200949087200F016F80848B0F82C
:1057E0006000401C00B20649A1F860000020054995
:1057F000486000BFBFE70000006D0020D40A002011
:10580000EC0900208008002010B52A48007A002802
:105810004ED02848407A00284AD0002026490872F5
:1058200048720820887240F20510086021480088FC
:10583000C0F3C700C8721F48408880091D49097815
:1058400040EA4110C1B21C4801731A4880788000B8
:105850001849898840EA5120C1B217484173154858
:105860008088C0F34701144881731248C08800093A
:105870001049097940EAC110C1B20F48C1730D48FF
:10588000007A0C2101EA80000A49897940EA011076
:105890000849497A01F003010843C1B2064801747E
:1058A000064801780448417401460548FCF7F1FABE
:1058B00010BD0000006D0020F00A0020B2000020A2
:1058C00000680040002002490860486070470000FE
:1058D00080080020002002490870487088707047D6
:1058E000500100202DE9F8430446DFF88C8000BF0A
:1058F00098F8000008B901F0F5FA00BF0027FF2072
:105900008DF80000102C31D21C48005D8DF801008C
:10591000194D1835EFF311808046202080F311884F
:1059200000BF00BF287D00F00300022807D1144803
:10593000047002226946284601F028FC0FE0284640
:1059400001F008FB0646022E07D30D480470022220
:105950006946284601F055FC01E04FF0FF3708F09A
:10596000FF0080F3118800BF00BF01E04FF0FF3758
:105970003846BDE8F8830000C8030020240000205A
:10598000340000202DE9F04104460D4616460E4F26
:1059900000BF387808B901F0A5FA00BFEFF3118015
:1059A0000746202080F3118800BF00BF32462946F9
:1059B000204600F00BF88046F8B280F3118800BF53
:1059C00000BF4046BDE8F081C80300202DE9F04744
:1059D000074688461646C24607EB47011B4800EBC0
:1059E000C109D9F8140020B1012811D0022826D10C
:1059F0001EE0484601F0AEFA0546B54201D2002449
:105A000005E0344632465146484601F0FAFB18E0BC
:105A1000484601F09FFA0546B54201D2284600E00B
:105A20003046044622465146484601F0EAFB08E06B
:105A300032465146484601F0A9FB044601E00024E5
:105A400000BF00BF2046BDE8F0870000E003002053
:105A50000FB438B5044606A800906A46204605995A
:105A600000F007F8054600200090284638BC5DF895
:105A700014FB2DE9F04F99B082460D46144603A859
:105A800014904020159000201690CDF860A017903B
:105A900000BF2E786D1C06B9DDE0252E79D10027D8
:105AA0004FF0010900BF2E78232E12D02B2E0CD0E0
:105AB0002D2E02D0302E10D103E047F001076D1CCF
:105AC0000EE047F002076D1C0AE047F004076D1C6A
:105AD00006E047F008076D1C02E04FF0000900BF28
