:020000040800F2
:100000005080002055020008315700087D33000859
:10001000AD5600081312000891710008000000009E
:100020000000000000000000000000009D0100082A
:100030002128000800000000F10100085D660008AA
:100040006F0200086F0200086F0200086F020008CC
:100050006F0200086F0200086F0200086F020008BC
:100060006F0200086F0200086F0200088D2200086E
:100070006F0200085D2300086F0200083D2400089D
:100080006F020008912400086F020008B5150008EF
:100090005D150008891500086F0200086F0200084E
:1000A0006F0200086F0200086F0200086F0200086C
:1000B0006F0200086F020008916700086F020008D5
:1000C0006F0200086F0200086F0200086F0200084C
:1000D0006F0200086F020008DD6D00087D6F0008E8
:1000E0006F0200086F0200086F0200086F0200082C
:1000F0006F0200086F0200086F0200086F0200081C
:100100006F0200086F0200086F0200086F0200080B
:10011000556A00086F0200086F0200086F020008AD
:100120006F0200086F0200086F0200086F020008EB
:100130006F0200086F0200086F0200089D19000896
:1001400045190008711900086F0200086F020008C5
:100150006F0200086F0200086F0200086F020008BB
:100160006F0200086F0200086F0200086F020008AB
:100170006F0200086F0200086F0200086F0200089B
:100180006F0200086F020008DFF80CD000F0E4FAFC
:100190000048004731800008508000202A4B196831
:1001A0000868B0E8F04F80F30988BFF36F8F4FF015
:1001B000000080F3118870470000000006480068C6
:1001C000006880F3088862B661B6BFF34F8FBFF353
:1001D0006F8F00DF00BF00BF08ED00E0DFF80C000C
:1001E000016841F470010160704700BF88ED00E0D4
:1001F000EFF30980BFF36F8F134B1A681EF0100FD7
:1002000008BF20ED108A20E9F04F106008B44FF0CD
:10021000200080F31188BFF34F8FBFF36F8F09F079
:1002200001FA4FF0000080F3118808BC19680868D3
:10023000B0E8F04F1EF0100F08BFB0EC108A80F34A
:100240000988BFF36F8F7047F0010020EFF305803E
:10025000704700000648804706480047FEE7FEE773
:10026000FEE7FEE7FEE7FEE7FEE7FEE7FEE7FEE766
:10027000916600088901000840EA01039B0703D04A
:1002800009E008C9121F08C0042AFAD203E011F8D5
:10029000013B00F8013B521EF9D27047D2B201E097
:1002A00000F8012B491EFBD270470022F6E710B57B
:1002B00013460A4604461946FFF7F0FF204610BDD4
:1002C000421C10F8011B0029FBD1801A704703461D
:1002D00011F8012B00F8012B002AF9D118467047BC
:1002E0002DE9FE4F804681EA0300C00F0C460090C6
:1002F00021F0004123F00045B8EB0200A94105D2EE
:100300004046214690461C460B46024623F00040DC
:10031000104347D0270DC7F30A00C3F30A510290D8
:10032000401A019040286BDAC3F3130040F4801B9D
:100330000098924620B10023D2EB030A63EB0B0B2B
:1003400001985946C0F14002504600F03FF9064678
:100350000D4650465946019A00F057F910EB080037
:100360006141002487EA115284EAE7731A4340D0BE
:10037000009A62B3019A012A4FEA075215DC001B6A
:1003800061EB02014FF0004202EA0752CDE9004260
:10039000001C41F5801132462B4600F08EF903B067
:1003A000BDE8F08F40462146F9E7001B61EB0201F2
:1003B000001C41F5801300185B412018A2F50017BE
:1003C00047EB030140EAD570B6196D4111E06D08A5
:1003D0004FEA360645EAC0754FEA0752001B61EB4B
:1003E0000201001C41F5801149084FEA3000001954
:1003F000514132462B4603B0BDE8F04F00F04EB9F4
:100400000098012240000023D0EB020263EBE0736E
:10041000009821464FEAE074B8EB000061EB04015C
:10042000E9E783F000435BE781F0004158E72DE9FD
:10043000FE4F81EA030404F0004421F000410094DF
:100440004FF0000B23F0004350EA01045ED052EA63
:1004500003045BD0C3F30A54C1F30A552C44A4F23D
:10046000F3340194A0FB0254C1F3130141F4801151
:10047000C3F3130343F4801301FB024400FB034E58
:10048000840A970A44EA815447EA8357A4FB076821
:1004900002958D0A05FB07854FEA932C04FB0C544B
:1004A0002705029D4FEA065847EA1637B5EB0805BF
:1004B0006EEB070C870E920E47EA811742EA831211
:1004C000A7FB0201B6EB0B0164EB00042B0D43EA22
:1004D0000C335E1844EB1C50DA465146E7FB020130
:1004E000C5F313044FEA0B3343EA14534FEA0432C3
:1004F000019C43EA0603A4F10C040294009CCDE99C
:1005000000B400F0DAF803B0BDE8F08F0020014637
:10051000F9E700F0004230F000400AD0C10D01F5CB
:100520006071C0F3160042EA0151C208400711434E
:10053000704700200146704730B5041E71F1000479
:1005400004DB4FF00044404264EB0101141E73F1E0
:10055000000405DB1C464FF00043524263EB0403EA
:10056000994208BF904230BD01F0004330B421F001
:10057000004150EA010206D00A0DA2F56072C1F3F3
:100580001301002A02DC30BC00207047440F44EA0B
:10059000C104C100E01830BC00EBC25000F047B805
:1005A00030B50B46014600202022012409E021FA43
:1005B00002F59D4205D303FA02F5491B04FA02F540
:1005C0002844151EA2F10102F1DC30BD202A04DB13
:1005D000203A00FA02F1002070479140C2F1200356
:1005E00020FA03F3194390407047202A04DB203A95
:1005F00021FA02F00021704721FA02F3D040C2F143
:1006000020029140084319467047202A06DBCB1789
:10061000203A41FA02F043EAE07306E041FA02F3BD
:10062000D040C2F12002914008431946704700298A
:10063000A8BF7047401C490008BF20F00100704768
:1006400010B4B0FA80FC00FA0CF050EA010404BFC8
:1006500010BC704749B1CCF1200421FA04F411FA1E
:100660000CF118BF012121430843A3EB0C01CB1D62
:100670004FEA00614FEA102042BF002010BC7047D3
:1006800000EBC35010440029A4BF10BC7047401CAD
:10069000490008BF20F0010010BC704710B5141EBF
:1006A00073F1000408DA401C41F1000192185B412B
:1006B0001A4301D120F0010010BD2DE9F04D924602
:1006C0009B4611B1B1FA81F202E0B0FA80F2203219
:1006D0009046FFF77BFF04460F4640EA0A0041EAD6
:1006E0000B0153465A46084313D0114653EA010002
:1006F00019D0C8F140025046FFF777FF05460E4675
:10070000504659464246FFF761FF084305D0012095
:1007100004E020463946BDE8F08D0020054346EA56
:10072000E0762C4337430A986305E40AA0EB0800FF
:100730000022FD0A44EA47540A3002D5002001464F
:10074000E9E7010510196941DDE90845001969412A
:10075000BDE8F04DA2E70000064C074D06E0E0685A
:1007600040F0010394E8070098471034AC42F6D3F8
:10077000FFF70EFD3CA700085CA7000870B58C18B9
:1007800010F8015B15F0070301D110F8013B2A11A5
:1007900006D110F8012B03E010F8016B01F8016B92
:1007A0005B1EF9D12B0705D40023521E0DD401F88E
:1007B000013BFAE710F8013BCB1A921C03E013F857
:1007C000015B01F8015B521EF9D5A142D8D300208C
:1007D00070BD00009FED221A9FED222A20EE010A33
:1007E000B5EE001A30EE010ABDEEC01A11EE100A85
:1007F000B5EE400AF1EE10FAB8BF013801EE100A6A
:10080000B8EEC11A30EE410A20EE020ABDEEC01A5F
:100810009FED152A11EE100A002130EE021AB1EBFD
:10082000502F49F638711CBF0020B0EE410AC0F6C7
:10083000000101EE100A01EB8001B8EE411A30EE22
:10084000410A91ED001A91ED012AB7EE003A33EE1C
:10085000403A23EE011A20EE020A31EE000A7047F8
:1008600083F9223E00000044000000C4B0B5B0F897
:1008700000C00B889C4553D145884B889D424FD181
:1008800013889C454CD153889D4249D1436849689F
:10089000506805FB0CFC0022B2EB9C0F30D04FEAF5
:1008A0009C0200BF93ED000A91ED001A03F1100EB7
:1008B00030EE010A80ED000A93ED010A91ED011A74
:1008C00001F1100430EE010A80ED010A93ED020AF5
:1008D00091ED021A00F1100530EE010A80ED020AD6
:1008E00093ED030A91ED031A013A30EE010A80ED0F
:1008F000030A734628462146D4D12146284673462A
:100900001CF003020AD000BFB3EC010AB1EC011ADB
:10091000013A30EE010AA0EC010AF5D1002000E016
:10092000FD2040B2B0BD01804280436070470000AE
:100930002DE9F04F81B02DED028B8EB0B0F800C0E4
:10094000B0F802A0D44540F03A810B88FD229C45C6
:1009500040F036814F88BB4240F0328140689FEDC5
:10096000B08ABCF1000F009000F031814C686FF04C
:10097000030000EB8C09002700266546CDF828C04F
:10098000204609940A98401B08D0B1002046FFF782
:100990008CFC3846013004F10404FBD304F1040B51
:1009A000B5F101084FF07E50206012D0A9EB86010E
:1009B0005846FFF77AFC01205C4600BF01308542B3
:1009C00004F10404FAD10136013FB8F1000F4546A5
:1009D000D8D1DDF828C0BCF1000F00F0F8804FEA54
:1009E000CA00043002900998009900EB8A00C0F117
:1009F0000009042000EB8A00ACF1010801EB8A0534
:100A00004FEA8A03019001F1040B4FF0000E0F46EC
:100A1000564600200A460490039300BF0EFB0AF0DE
:100A200002EB800191ED000A0C910999B5EE400AA4
:100A3000F1EE10FA01EB80000D90CDF82080CDE9A9
:100A400006950B922ED10EF1010060450DD20020CB
:100A5000414600BF2A1892ED000AB5EE400AF1EEB9
:100A600010FA06D101391844F4D10498012817D09E
:100A7000D4E0A0EB0900002157F82130146842F8B7
:100A8000043B47F8214001318E42F5D10D9A514681
:100A90001368046840F8043B013942F8044BF7D16D
:100AA000012004900C99AAEB0E0991ED008AB9F18E
:100AB000010F4FF07E5008600DD00120594600BF55
:100AC00091ED000A013080EE080A864281ED000AAD
:100AD00001F10401F4D10D995046CDF814B000BFD6
:100AE00091ED000A013880EE080AA1EC010AF7D165
:100AF000DDF82C800998A9F1010B0022654600BFA2
:100B0000724505D108EB890300EB8A0036E000BF8F
:100B10000C9998ED008A91ED000ABBF1000F28EEC8
:100B2000000A38EE400A88ED000A17D0012304219C
:100B300007EB010C08EB01049CED000A94ED001A90
:100B400028EE000A013331EE400A9E4201F1040111
:100B500084ED000AECD108EB010301E008F1040385
:100B60000D9C5146B4EC011A90ED000A28EE011AD2
:100B700030EE410AA0EC010A0139F3D103EB8E08F3
:100B8000013D02F10102BBD1079D02980B9ADDF8ED
:100B900020800544039BDDF818900198DDF814B01F
:100BA000DDF828C00432013E0EF1010EA8F1010863
:100BB000A9EB0309074483447FF430AF09E0FD2229
:100BC00050B20EB0BDEC028B01B0BDE8F08F00203A
:100BD0000490B5EE408AF1EE10FA4FF00002EFD12A
:100BE00004980128ECD00AFB0CF14FF000004FF004
:100BF000000271B1009B00BF93ED000AB5EE400A00
:100C0000F1EE10FA05D10132914203F10403F3D160
:100C10000A468A4208BF6FF00400D2E7FB22CFE702
:100C2000000000002DE9F04F85B047880B889F42F7
:100C300040F08480B0F800B013889B4540F07E807F
:100C4000B1F802E053889E4578D1D0F8048050680E
:100C500049680190BC0827F0030008EB800604FBFC
:100C60000EF09FED390A07F0030C029101EB001022
:100C70004FEA8E0200210090CDE903E70198DDF8EC
:100C800008A0009B00EB8109B0EE401A5746404691
:100C900074B3554627464046B0EE401A95ED002AFB
:100CA00090ED003A154490ED014A23EE022A95EDAD
:100CB000003A154490ED025A31EE021A24EE032A4E
:100CC00095ED003A154490ED036A31EE021A25EED7
:100CD000032A95ED003A31EE021A26EE032A31EE90
:100CE000021A013F00F110001544D7D11F463046CB
:100CF000BCF1000F0CD0654690ED002A97ED003A4C
:100D0000043022EE032A31EE021A013D1744F3D1DA
:100D1000A9EC011ABEF1010E0AF1040A03F1040361
:100D2000B2D1DDF80CE0049F714408EB8708BBF1F9
:100D3000010B06EB8706A1D1002000E0FD2040B2A8
:100D400005B0BDE8F08F00BF00000000B0B5B0F8FE
:100D500000C00B889C4553D145884B889D424FD19C
:100D600013889C454CD153889D4249D143684968BA
:100D7000506805FB0CFC0022B2EB9C0F30D04FEA10
:100D80009C0200BF93ED000A91ED001A03F1100ED2
:100D900030EE410A80ED000A93ED010A91ED011A4F
:100DA00001F1100430EE410A80ED010A93ED020AD0
:100DB00091ED021A00F1100530EE410A80ED020AB1
:100DC00093ED030A91ED031A013A30EE410A80EDEA
:100DD000030A734628462146D4D121462846734645
:100DE0001CF003020AD000BFB3EC010AB1EC011AF7
:100DF000013A30EE410AA0EC010AF5D1002000E0F2
:100E0000FD2040B2B0BD00002DE9F04FB0F800A0C9
:100E10004A88924545D142880B889A4241D1D1F8FF
:100E200004C046684FEA920802F003094FEA0A1E1E
:100E30004FEA8A014FF0000B624600BFB8F1000F85
:100E40001AD01546474600BF336828462B607368A2
:100E50000D444350B3686C186B50F56806F11003ED
:100E600066186550013F06EB01051E46ECD100EB0C
:100E70000E071E4602E000BF0CEB8B07B9F1000F16
:100E800006D0484656F8043B01383B600F44F9D180
:100E90000BF1010BBAF1010A02F10402CED10020DC
:100EA00000E0FD2040B2BDE8F08F00009FED201A69
:100EB0009FED202A20EE010ABDEEC01A11EE100AA5
:100EC000B5EE400AF1EE10FAB8BF013801EE100A93
:100ED000B8EEC11A30EE410A20EE020ABDEEC01A89
:100EE0009FED152A11EE100A002130EE021AB1EB27
:100EF000502F49F638711CBF0020B0EE410AC0F6F1
:100F0000000101EE100A01EB8001B8EE411A30EE4B
:100F1000410A91ED001A91ED012AB7EE003A33EE45
:100F2000403A23EE011A20EE020A31EE000A704721
:100F300083F9223E00000044000000C470B505465D
:100F40000C4600260DB1022C00D870BDA11E06482B
:100F50000288284601F0D6FE0646A01E2E54310A0D
:100F6000601E295400BFF0E78202002070B50546DC
:100F70000C4600260DB1022C00D870BD611EFF2268
:100F8000284601F0D9FE0646601E2E5400BFF4E745
:100F900010B52DED068B1E480068FFF7BAFA41EC3C
:100FA0001A0B9FED1C0B53EC102BFFF740FA41EC92
:100FB000180B1A48D0ED100A90ED010AB8EEC00ADD
:100FC00030EEC00A10EE101A0846FFF7A2FA41EC04
:100FD000190B53EC182BFFF7AFFA09D21048B0F9F0
:100FE00000000F490988491C09B20D4A118000E030
:100FF00000200B4908800846B0F90000B0F5FA7FE0
:1010000003DD00200549A1F88800BDEC068B10BD6A
:1010100030010020000000000000E03F7C0E0020B6
:101020002601002070B586B004460D461646002005
:101030008DF80C008DF80D0008208DF80E00800151
:1010400001901B48854200DC05E042F210708542A9
:1010500000DB00E0284605461548864200DC05E036
:1010600042F21070864200DB00E03046064610482F
:10107000844200DC05E042F21070844200DB00E0B4
:1010800020460446300A8DF80F008DF81060290ABA
:101090008DF811108DF81250210A8DF813108DF86B
:1010A000144001A9034800F02CFF06B070BD0000F9
:1010B000F0D8FFFF00640040D2ED020A92ED021A60
:1010C000B6EE000A00EEC10AD2ED030A92ED031A51
:1010D00000EEC10AD0ED000A20EE200AD2ED010A8E
:1010E00092ED021A60EE810A92ED001AD2ED031A17
:1010F00041EE610A90ED011A00EE810AD2ED010A7B
:1011000092ED031A60EE810A92ED001AD2ED021AF6
:1011100041EE210A90ED021A00EE810AF0EE000A7B
:1011200020EE200A81ED000A92ED010AD2ED020ABA
:1011300020EE200AD2ED000A92ED031A00EE810A99
:10114000D0ED000A60EE200A92ED011AD2ED011AEC
:10115000B6EE000A01EE610AD2ED031A92ED032AFF
:10116000B0EE401A01EEC21AD0ED011AB0EE600ADC
:1011700001EE210AD2ED020A92ED031A60EE810A15
:1011800092ED001AD2ED011A41EE610A90ED021AB9
:1011900000EE810AF0EE000A20EE200A81ED010A3D
:1011A00092ED010AD2ED030A20EE200AD2ED000AE8
:1011B00092ED021A00EEC10AD0ED000A20EE200ADC
:1011C000D2ED020A92ED031A60EE810A92ED001A46
:1011D000D2ED011A41EE210A90ED011A00EE810ACA
:1011E00092ED011AD2ED011AF6EE000A41EE610A03
:1011F00092ED021AD2ED021A41EE610A90ED021A46
:1012000000EE810AF0EE000A20EE200A81ED020ACB
:10121000704700BFFEE7000000B58BB0012102203F
:1012200004F070FC0121480604F07CFC092208212E
:101230005F4801F029FD092211465D4801F024FDB7
:101240004FF44070029002208DF80C008DF80D00D4
:1012500000208DF80E0001208DF80F0002A95448DF
:1012600001F0CAFC14208DF8040001208DF805005F
:1012700000208DF8060001208DF8070001A804F079
:1012800059FA15208DF8040001208DF80500002082
:101290008DF8060001208DF8070001A804F04AFA35
:1012A00013208DF8040001208DF8050000208DF832
:1012B000060001208DF8070001A804F03BFA3D4824
:1012C00000F0D4FB08A800F00CFE00208DF82600EA
:1012D00001208DF827008DF8280000208DF82900C6
:1012E0008DF82A0001208DF82B0000208DF82200B7
:1012F0008DF8230008208DF8240003208DF82500A8
:10130000ADF8200008A92B4800F0E9FC00208DF87A
:101310001A0001208DF81B0000208DF81C0044F2FB
:101320004000ADF8100044F22000ADF8120044F285
:101330006000ADF814000020ADF81600ADF81800FC
:1013400001208DF81D0004A800F0ACFB01208DF8F1
:101350001A008DF81B0000208DF81C0042F22000BE
:10136000ADF8100046F2A000ADF812004FF40350A3
:10137000ADF8140048F2C000ADF816000120ADF839
:1013800018008DF81D0004A800F08CFB012202213A
:10139000084800F09BFC01221021064800F096FC52
:1013A00001221146034800F091FC0BB000BD000083
:1013B00000040240006400402D48006840F2022111
:1013C000884216D12A48007B2949C97A40EA01207F
:1013D000284908802648817B407B41EA002000B2F2
:1013E000244948812448008E401C00B222490886C6
:1013F0003CE01F48006840F20121884218D11C4897
:10140000007B1B49C97A40EA01201A49A1F88C00E7
:101410001748817B407B41EA002001B21548A0F8C3
:1014200096101548008F401C00B2134908871DE034
:101430000F48006840F20321884217D10C48007B16
:101440000B49C97A40EA01200C4908800848817B91
:10145000407B41EA002000B2084948810648B0F8C4
:101460004000401C00B20449A1F840007047000051
:1014700050670020080F0020CC0D00207C0E0020BB
:1014800010B52B480068B0F5837F1DD12848C07A7D
:10149000284908702648407B274908702448807BEB
:1014A000264908702248407C2549087000202549BB
:1014B00008602548B0F85800401C00B22249A1F845
:1014C000580003F00BFB32E01948006840F2064177
:1014D00088421CD11648007B1549C97A40EA012090
:1014E00000B21A4908601248817B407B41EA002023
:1014F00000B2174908600020164908601248B0F889
:101500006000401C00B21049A1F860000FE00848DC
:10151000006840F20111884209D10F480449D1F80E
:101520000B10416101460248D0F80F00886010BDE1
:1015300064670020190100201A010020910000209A
:101540008800002070080020CC0D002084000020BE
:10155000800000208C0000207C0D002010B50221AE
:10156000074800F023FB50B1064A0021044800F070
:1015700040FCFFF721FF0221014800F01DFA10BDD9
:10158000006400405067002010B51021074800F0AB
:101590000DFB50B1064A0121044800F02AFCFFF778
:1015A0006FFF1021014800F007FA10BD00640040F1
:1015B0006467002010B50121044800F0F7FA18B163
:1015C0000121024800F0F8F910BD0000006400405D
:1015D00000B58BB00121022004F094FA01218806A5
:1015E00004F0A0FA09220D215E4801F04DFB09220A
:1015F0000C215C4801F048FB4FF44050029002205F
:101600008DF80C008DF80D0000208DF80E000120E3
:101610008DF80F0002A9534801F0EEFA40208DF832
:10162000040001208DF8050000208DF8060001203F
:101630008DF8070001A804F07DF841208DF8040022
:1016400001208DF8050000208DF8060001208DF89E
:10165000070001A804F06EF83F208DF80400012077
:101660008DF8050000208DF8060001208DF8070098
:1016700001A804F05FF83C4800F0F8F908A800F071
:1016800030FC00208DF8260001208DF827008DF811
:10169000280000208DF829008DF82A0001208DF8FF
:1016A0002B0000208DF822008DF8230008208DF8F3
:1016B000240003208DF82500ADF8200008A92A4851
:1016C00000F00DFB0F208DF81A0001208DF81B0093
:1016D00000208DF81C004FF48240ADF8100044F259
:1016E000C000ADF8120042F2A000ADF814000020D6
:1016F000ADF81600ADF8180001208DF81D0004A803
:1017000000F0D0F910208DF81A0001208DF81B0090
:1017100000208DF81C004FF40050ADF810000020A0
:10172000ADF8120042F22000ADF814000020ADF830
:1017300016000120ADF818008DF81D0004A800F077
:10174000B1F901220221084800F0C0FA012210215B
:10175000054800F0BBFA01221146034800F0B6FA32
:101760000BB000BD000402400068004010B55148B5
:10177000006840F20511884251D14E48007CC0F308
:1017800081004D4908724B48007C00F0030048720C
:101790000846407A10B10846007A00B910BD4548A5
:1017A000C07AC1004348007B41EA6010424908808A
:1017B0004048007B81013F48407B41EAA000C0F3E4
:1017C0000A003D4948803B48407B41023948807BC4
:1017D00041EA40013748C07B41EAE010C0F30A000B
:1017E000354988803348C07B01013248007C41EA9A
:1017F0002010C0F30A003049C8802E48407C2F4991
:10180000087004F023FA2E48B0F84800401C00B2DB
:101810002B49A1F8480000202A49486047E02548A4
:101820000068B0F5027F1ED12248007B2149C97AA9
:1018300040EA0120244908801E48817B407B41EA20
:10184000002000B2204988801A48017CC07B41EA10
:10185000002000B21C49488019480088401C00B292
:101860001749088023E01348006840F206218842A7
:101870001DD11048007B0F49C97A40EA0120134965
:1018800008800C48817B407B41EA002000B20F4970
:1018900088800848017CC07B41EA002000B20B49E7
:1018A000488007480089401C00B20549088100BFF4
:1018B00074E70000786700206C090020AE0000206B
:1018C000CC0D002070080020781100202412002088
:1018D00019480068B0F5807F14D118481649B1F84E
:1018E0000B10018001461448B0F80D0048801248E2
:1018F000B0F80F0088801248008A401C00B21049DE
:10190000088218E00C48006840F20111884212D1A8
:101910000A480949B1F80B10C1800749B1F80D1008
:1019200001810549B1F80F1041810548008B401C29
:1019300000B20349088370478C67002034140020EC
:10194000CC0D002010B50221074800F02FF950B14E
:101950000221054800F030F8044A0021024800F056
:1019600048FAFFF703FF10BD0068004078670020C9
:1019700010B51021074800F019F950B110210548A1
:1019800000F01AF8044A0121024800F032FAFFF789
:101990009FFF10BD006800408C67002010B501213A
:1019A000044800F003F918B10121024800F004F8DE
:1019B00010BD000000680040B1F5007F3AD00FDC98
:1019C000202928D006DC01291CD004291DD0082993
:1019D00040D11DE0402921D0B1F5807F3AD126E0E9
:1019E000B1F5004F31D006DCB1F5806F25D0B1F5EF
:1019F000006F2FD124E0B1F5803F12D0B1F5003F48
:101A000028D111E0154A826025E00822C26022E058
:101A10001022C2601FE0082202611CE01022026155
:101A200019E00822426016E01022426013E004220E
:101A3000426010E0042242600DE0042242600AE0AD
:101A4000002282610422426005E0002282610422B9
:101A5000426000E000BF00BF7047000001010100CC
:101A600010B5FFF7D9FBFFF7B3FD10BD10B5044665
:101A70000B48844209D10121480604F063F8002193
:101A80004FF0007004F05EF808E00121880604F0D1
:101A900059F800214FF0806004F054F810BD0000A8
:101AA0000064004010B50021837A012202FA03F19C
:101AB0003D4A126842F001023B4B1A603A4A1C321E
:101AC00012688A43384B1C331A60027BCAB9364A03
:101AD0000C3212688A43344B0C331A604288C38834
:101AE00042EA0343304A4032847A42F83430028872
:101AF000838842EA03432C4A4032847A02EBC402D0
:101B00005360027B012A19D1274A0C3212680A431A
:101B1000254B0C331A604288038842EA0343224A69
:101B20004032847A42F83430C288838842EA0343E0
:101B30001D4A4032847A02EBC4025360C27A3AB939
:101B4000194A121D12688A43174B1B1D1A6006E0C2
:101B5000154A121D12680A43134B1B1D1A60028995
:101B600032B9114A143212688A430F4B14331A6087
:101B70000289012A06D10C4A143212680A430A4B20
:101B800014331A60427B012A06D1074A1C321268BC
:101B90000A43054B1C331A60034A126822F0010203
:101BA000014B1A6010BD00000066004070B504468D
:101BB0000D46002660692840002871D0B5F5807F69
:101BC0005CD010DC082D35D006DC012D20D0022D94
:101BD00024D0042D72D127E0102D31D0202D35D006
:101BE000402D6BD138E0B5F5004F60D009DCB5F57C
:101BF000007F49D0B5F5806F4CD0B5F5006F5DD151
:101C00004FE0B5F5803F2DD0B5F5003F56D12FE020
:101C1000A0682D4900F004FB064651E0E06803216E
:101C200000F0FEFA06464BE0E068082100F0F8FA02
:101C3000064645E0E068102100F0F2FA06463FE073
:101C40002069032100F0ECFA064639E020690821FA
:101C500000F0E6FA064633E02069102100F0E0FAD1
:101C600006462DE06068082100F0DAFA064627E013
:101C70006068102100F0D4FA064621E0A069012135
:101C800000F0CEFA06461BE0A069022100F0C8FA77
:101C9000064615E0A069042100F0C2FA06460FE0EE
:101CA0000FE0A069702100F0BBFA064608E060680A
:101CB000042100F0B5FA064602E0FFE7002600BF67
:101CC00000E00026304670BD010101001AB14369F1
:101CD0000B43436102E043698B434361704730B576
:101CE000024600200023146824F0020414601468E3
:101CF00044F00104146000E05B1C546804F001042B
:101D00001CB94FF6FF74A342F6D1546804F00104E5
:101D10000CB900206CE08C79012C04D1146844F0DB
:101D20008004146003E0146824F080041460CC790B
:101D3000012C04D1146844F04004146003E01468DA
:101D400024F0400414600C7A012C04D1146844F08F
:101D50002004146003E0146824F0200414604C7A1A
:101D6000012C04D1146844F01004146003E01468DA
:101D700024F0100414608C7A012C04D1146844F00F
:101D80000804146003E0146824F008041460CC7A9A
:101D9000012C04D1146844F00404146003E01468B6
:101DA00024F0040414608C78A407CD7844EA056418
:101DB0000D7944EA05444D7944EA05540D886D1EB9
:101DC0002C43D461146824F001041460002300E063
:101DD0005B1C546804F001041CB14FF6FF74A3426D
:101DE000F6D1546804F001040CB1002000E0012099
:101DF00030BD10B500F5D87303EB01131B6803F079
:101E000004031372137A53B900F5D87303EB01136B
:101E10001B6840F2FF7404EA5353136009E000F5B5
:101E2000D87303EB01131B686FF0604404EAD3031B
:101E3000536000F5D87303EB01131B6803F0020332
:101E4000537200F5D87303EB01135B6803F00F03C3
:101E5000937200F5D87303EB01135B681B0AD3740C
:101E600000F5D87303EB01139B68D37200F5D873A8
:101E700003EB01139B681C0A147300F5D87303EB82
:101E800001139B681C0C547300F5D87303EB01130A
:101E90009B681B0E937300F5D87303EB0113DB688B
:101EA000D37300F5D87303EB0113DB681C0A1474B9
:101EB00000F5D87303EB0113DB681C0C547400F5B8
:101EC000D87303EB0113DB681B0E937421B9C3684D
:101ED00043F02003C36003E0036943F02003036180
:101EE00010BD00218171C171017241728172C17294
:101EF0008170C170032101710221417101210180B2
:101F0000704710B502460020936803F08063B3F178
:101F1000806F00D110E0936803F00063B3F1006FAD
:101F200001D1012008E0936803F08053B3F1805F92
:101F300001D1022000E00420042874D002F5C0730F
:101F400003EB00131B6803F0010402F5C07303EBFD
:101F500000131C600B7A7BB94B7A0C8843EA44531C
:101F600002F5C07404EB00142468234302F5C07426
:101F700004EB0014236010E00B7A4C6843EAC403BE
:101F80004C7A234302F5C07404EB00142468234305
:101F900002F5C07404EB001423608B7A03F00F0386
:101FA0008B7202F5C07303EB00135B6823F00F0420
:101FB00002F5C07303EB00135C6002F5C07303EB22
:101FC00000135B688C7A234302F5C07404EB0014A1
:101FD00063608B7B1C064B7B44EA03440B7B44EA27
:101FE0000323CC7A234302F5C07404EB0014A360EE
:101FF0008B7C1C064B7C44EA03440B7C44EA0323A1
:10200000CC7B234302F5C07404EB0014E36002F5BB
:10201000C07303EB00131B6843F0010402F5C073A7
:1020200003EB00131C6010BD0EB5002010490860C2
:1020300010480B460ECB0EC00121082003F072FDA4
:102040000121082000F012F90B4801905320ADF84F
:1020500000000020ADF80200ADF80800694607480E
:1020600004F0E0FB0121054804F0ACFB0EBD0000CC
:10207000600200200C680020FEFFFF7F000C004083
:102080005CE04FF4C8712E48FEF70FF92C4807F0BA
:10209000FBF94FF4C8712B48FEF707F9002408E05C
:1020A000294951F8240006F08DFE284941F8240002
:1020B000641C062CF4D3002006F084FE244908603A
:1020C000204807F077F9002003F02CFE21A1002022
:1020D00003F0DEFE002003F025FE2AA1002003F01D
:1020E000D7FE002003F01EFE154A34A1002003F0A5
:1020F000CFFE002003F016FE16A1002003F0C8FE5C
:10210000002003F00FFE2EA1002003F0C1FE0020EE
:1021100003F008FE0B4A29A1002003F0B9FE0020BD
:1021200003F000FE30A1002003F0B2FE4FF47A70FD
:1021300006F0D6FF9FED390A00F020FCA1E7000071
:10214000A4090020340B002088080020C40C0020C3
:10215000680000202D2D2D2D2D2D2D2D2D2D2D2DDB
:102160002D2D2D2D2D2D2D2D2D2D2D2D2D2D2D2D9F
:102170002D2D2D2D2D2D2D2D2D2D2D2D2D2D2D2D8F
:102180002D0D0A004E616D6520202020537461746E
:1021900065205072696F7269747920202020205266
:1021A000656D61696E537461636B2020202020533C
:1021B000657175656E63650D0A000000257300008A
:1021C0004E616D6520202020202020202052756E39
:1021D000436F756E7473202020205573696E6752AB
:1021E0006174650D0A0000002D2D2D2D2D2D2D2D36
:1021F0002D2D2D2D2D2D2D2D2D2D2D2D2D2D2D2D0F
:102200002D2D2D2D2D2D2D2D2D2D2D2D2D2D2D2DFE
:102210002D2D2D2D2D0D0A0A0000000000007A44FE
:102220000246002002EA01030BB1012000E0002079
:1022300070470000012803D1034991ED000A70475F
:10224000024991ED000AFAE7B4010020DC01002008
:10225000012803D1034991ED000A7047024991ED2D
:10226000000AFAE7B8010020E001002029B1064A7F
:1022700052680243044B5A6004E0034A52688243A6
:10228000014B5A6070470000002004E070B52B49F4
:102290002B4800F047FA00284ED00F2229492A483F
:1022A000FDF7EAFF002432E027480F38005D2128BF
:1022B0002BD1002507E0281923490F39085C234951
:1022C0004855681C05B20F2DF5DB21480088401CDD
:1022D00000B21F4908800F211C4804F07BFF18B191
:1022E0001A4803F0E5F90FE01A480088401C00B2D4
:1022F00018490880B1F90000C11700EB91718910ED
:10230000A0EB8101134A118003E0601C04B20F2C82
:10231000CADB00BF10490A4800F0DEF80749084848
:1023200000F0F4F80F220849A1F10F00FDF7A4FF17
:102330000121034800F004F970BD00002080001066
:1023400010600240EC68002034690020166900200B
:102350007E020020800200202000001070B530496D
:10236000304800F0DFF9002859D02F482F490A687B
:1023700002604A6842600A890281897A8172002477
:1023800032E029480B38005D21282BD1002507E0D9
:10239000281925490B39085C25494855681C05B2A0
:1023A0000B2DF5DB23480088401C00B22149088032
:1023B0000B211F4804F00EFF18B11D4800F0A2FECB
:1023C0000FE01D480088401C00B21B490880B1F98D
:1023D0000000C11700EB91718910A0EB8101164A32
:1023E000118003E0601C04B20B2CCADB00BF4FF06D
:1023F00081510C4800F070F809490A4800F086F84D
:1024000009480B3808490A6802604A6842600A892C
:102410000281897A81720121024800F091F870BD31
:10242000008020104060024000680020CF6700203C
:10243000EA6700205A0200205C02002010B5104913
:10244000104800F06FF9D0B100210E4800F078F884
:102450000D490C4800F040F810210A4800F0DEF960
:102460000749084800F052F800BF8021074804F0EF
:10247000C4FD0028F9D08021044804F091FD10BD6E
:10248000208000207060024020000020004C0040AE
:1024900010B50D490D4800F023F9012812D100BFF5
:1024A00040210B4804F0A9FD0028F9D0094907484C
:1024B00000F012F80749054800F028F840210448C8
:1024C00004F06EFD10BD000000802020A0600240DE
:1024D00000440040000020200246094B9A4201D2ED
:1024E000084801E00648103801F000531BB1064BC4
:1024F0000B40C36002E0044B0B4083607047000058
:1025000010640240006002407D0F7D0F0246094BBF
:102510009A4201D2084801E00648103801F0005301
:102520001BB1064B0B40C36002E0044B0B408360C1
:102530007047000010640240006002407D0F7D0F74
:1025400021B1026842F00102026003E0026822F059
:102550000102026070470000016821F00101016082
:102560000021016041608160C16001612121416100
:102570004A49884204D13D21484A103A91608CE092
:1025800046491831884205D14FF47461434A103AE4
:10259000916082E041493031884205D14FF4741195
:1025A0003E4A103A916078E03C494831884205D172
:1025B0004FF07461394A103A91606EE037496031EA
:1025C000884204D13649354A103AD16065E0334932
:1025D0007831884204D13349304A103AD1605CE006
:1025E0002E499031884204D12F492C4A103AD160AB
:1025F00053E02A49A831884205D14FF03D51274A7E
:10260000103AD16049E02949884204D13D21274A46
:10261000083A116041E025491831884205D14FF44C
:102620007461224A083A116037E02049303188420B
:1026300005D14FF474111D4A083A11602DE01B4971
:102640004831884205D14FF07461184A083A116048
:1026500023E016496031884204D11149134A121F00
:1026600011601AE011497831884204D10D490F4AAE
:10267000121F116011E00D499031884204D10A49BE
:102680000A4A121F116008E00849A831884204D1A3
:102690004FF03D51054A121F116070471060024013
:1026A0003D000020400F002000003D20106402404B
:1026B00021B1026842F48022026003E0026822F441
:1026C00080220260704722B1036843F40023036054
:1026D00003E0036823F400230360016170470000F6
:1026E00030B503460A46002000240B4DAB4201D210
:1026F0000A4901E00849103902F000550DB14C6853
:1027000000E00C68064D2C4004EA02050DB10120E2
:1027100000E0002030BD0000106402400060024074
:102720007D0F7D0F70B50246002000240025124E5B
:10273000B24201D2114B01E00F4B103B104E0E4044
:1027400036B11E2606EAD124166806EA040502E020
:10275000566906F0800501F000560EB15C6800E095
:102760001C68084E344004EA010616B10DB1012080
:1027700000E0002070BD00001064024000600240D4
:102780003C0F3C0F7D0F7D0F10B501F080034BB166
:1027900022B1436943F08003436103E0436923F0BE
:1027A0008003436180290BD02AB1036801F01E0425
:1027B0002343036004E0036801F01E04A3430360A5
:1027C00010BD000010B500220268134B1A40CC68FF
:1027D0000B6823434C6923438C692343CC6923430F
:1027E0000C6A23434C6A23438C6A23434C6B234378
:1027F0008C6B23431A430260426922F00702D1E93D
:102800000B3423431A4342610B6943604B68836076
:102810008B68C36010BD00003F801CF041607047B2
:102820007047D2ED020A92ED021AB6EE000A00EEEF
:10283000C10AD2ED030A92ED031A00EEC10AD0EDEF
:10284000000A20EE200AD2ED010A92ED021A60EE93
:10285000810A92ED001AD2ED031A41EE210A90EDA1
:10286000011A00EE810AD2ED010A92ED031A60EE20
:10287000810A92ED001AD2ED021A41EE610A90ED42
:10288000021A00EE810AF0EE000A20EE200A81ED25
:10289000000A92ED010AD2ED020A20EE200AD2EDE2
:1028A000000A92ED031A00EEC10AD0ED000A60EEB4
:1028B000200A92ED011AD2ED011AB6EE000A01EEDD
:1028C000610AD2ED031A92ED032AB0EE401A01EE2E
:1028D000C21AD0ED011AB0EE600A01EE210AD2ED63
:1028E000020A92ED031A60EE810A92ED001AD2ED0F
:1028F000011A41EE210A90ED021A00EE810AF0EE73
:10290000000A20EE200A81ED010A92ED010AD2EDC3
:10291000030A20EE200AD2ED000A92ED021A00EE20
:10292000810AD0ED000A20EE200AD2ED020A92EDD3
:10293000031A60EE810A92ED001AD2ED011A41EEFF
:10294000610A90ED011A00EE810A92ED011AD2EDB2
:10295000011AF6EE000A41EE610A92ED021AD2ED7A
:10296000021A41EE610A90ED021A00EE810AF0EEC1
:10297000000A20EE200A81ED020A70475748B0F99C
:10298000000000EE900AF8EEE00A80EE801A53484C
:1029900080ED011AB0F9080000EE900AF8EEE00AA6
:1029A00080EE801A4D4880ED031AB0F9100000EB5C
:1029B000800000EE900AF8EEE00A80EE801A4748A8
:1029C00080ED051AB0F9180000EB800000EE900AC7
:1029D000F8EEE00A80EE801A404880ED071AB0F960
:1029E000200000EE900AF8EEE00A80EE801A3B48E4
:1029F00080ED091AB0F9280000EE900AF8EEE00A1E
:102A000080EE801A354880ED0B1AB0F9300000EEE8
:102A1000900AF8EEE00A80EE801A304880ED0D1A38
:102A2000B0F9380000EE900AF8EEE00A80EE801A65
:102A30002A4880ED0F1AB0F9400000EE900AF8EE37
:102A4000E00A80EE801A254880ED111AB0F948009E
:102A5000C0EBC000400000EE900AF8EEE00A80EE05
:102A6000801A1E4880ED131AB0F95000400000EEA5
:102A7000900AF8EEE00A80EE801A184880ED151AE8
:102A8000B0F85800322110FB01F000EE900AF8EE89
:102A9000E00A80EE801A114880ED171AB0F9600044
:102AA00000EE900AF8EEE00A80EE801A0B4880ED06
:102AB000191A0020094908800881088208830884BF
:102AC000088508860887A1F84000A1F84800A1F809
:102AD0005000A1F85800A1F860007047CC0D00200C
:102AE00070B52DED028B04460D46002C01DC002054
:102AF00005E043F6CA20844200DB00E02046404265
:102B000000EE100AB8EEC00A384880ED030A002D26
:102B100001DC002005E043F6CA20854200DB00E02E
:102B2000284600EE100AB8EEC00A304880ED260AAA
:102B3000B0F90A0000EE900AF8EEE00AB0EE600A82
:102B400000212A480C3002F0B9FEB0EE408A9FED19
:102B5000280AB4EEC08AF1EE10FA02D89FED240ADA
:102B60000BE09FED240AB4EEC08AF1EE10FA02DB0E
:102B70009FED200A01E0B0EE480ABDEEC00A10EE5B
:102B8000100A00B21949A1F888000846B0F9960069
:102B900000EE900AF8EEE00AB0EE600A0021134859
:102BA000983002F08BFEB0EE408A9FED110AB4EE31
:102BB000C08AF1EE10FA02D89FED0D0A0BE09FEDEE
:102BC0000D0AB4EEC08AF1EE10FA02DB9FED090A9D
:102BD00001E0B0EE480ABDEEC00A10EE100A01B2E4
:102BE0000248A0F81411BDEC028B70BD080F002044
:102BF00000401CC600401C46F0B50A4600210023D8
:102C0000002400BF3DE0012505FA01F3156805EA3F
:102C100003049C4234D105684F000326BE40B543EF
:102C2000056015794E00B540066835430560157995
:102C3000012D02D01579022D16D185684F0003268B
:102C4000BE40B543856055794E00B5408668354332
:102C50008560456801268E40B54345604568967994
:102C60008E40B6B235434560C5684F000326BE406E
:102C7000B543C560D5794E00B540C6683543C560DB
:102C8000491C1029BFD3F0BDF0B5002300244D0727
:102C9000ED0E02FA05F3CE1000F1200555F826508E
:102CA0004E07F70E0F26BE40B543CF1000F12006A9
:102CB00046F82750CE1000F1200555F8265045EA79
:102CC0000304CE1000F1200545F82640F0BD4183F5
:102CD0007047000008B50949096800910168009A29
:102CE000511A00EE901AF8EE600A9FED051AC0EE38
:102CF000811AB0EE610A0099016008BD240C004001
:102D00000024744930B5034613B94FF6FF7030BD47
:102D100009E013F8014B82EA0400C0B2054D35F812
:102D2000100080EA2222081EA1F10101F1D1104613
:102D3000EDE70000769B000830B5034605E013F888
:102D4000010B80EA02040448025D081EA1F10101A2
:102D5000F5D1104630BD0000779D000810B58348BE
:102D6000007870B39FED820A824880ED000A01204E
:102D700000F050FA804880ED000A9FED800A8048FC
:102D800080ED000A012000F053FA7E4880ED000A31
:102D90009FED7D0A7D4880ED000A002000F03AFAA0
:102DA0007B4880ED000A9FED7B0A7B4880ED000A9E
:102DB000002000F03DFA794880ED000A00206B49C0
:102DC0000870012002F08CFE6A48D0ED000A70EE17
:102DD000600A9FED731A80EE810ADFED720A20EE21
:102DE000200A714880ED000A012000F013FA6248C1
:102DF000D0ED000A30EE600A6C4880ED000A6C48A5
:102E000090ED000A6948D0ED000A20EE200A6848DB
:102E1000D0ED000AB7EE001A71EE600A624890ED3C
:102E2000001A00EE810A634880ED000A012004F0D8
:102E3000EDF95348D0ED000A70EE600A9FED581A84
:102E400080EE810ADFED570A20EE200A5A4880ED15
:102E5000000A012000F0ECF94A48D0ED000A30EEFB
:102E6000600A564880ED000A554890ED000A534824
:102E7000D0ED000A20EE200A5148D0ED000AB7EE4E
:102E8000001A71EE600A4C4890ED001A00EE810ABB
:102E90004C4880ED000A002002F022FE3B48D0EDB5
:102EA000000A30EE600ADFED3E0A80EE201A9FED48
:102EB0003D0A21EE000A444880ED000A002000F09F
:102EC000A9F93348D0ED000A30EE600A3F4880EDA2
:102ED000000A374890ED000A3C48D0ED000A20EE89
:102EE000200A3348D0ED000AB7EE001A71EE600AEE
:102EF000354890ED001A00EE810A354880ED000A51
:102F0000002004F083F92448D0ED000A30EE600A76
:102F1000DFED230A80EE201A9FED220A21EE000A3F
:102F20002C4880ED000A002000F082F91B48D0ED0B
:102F3000000A30EE600A284880ED000A204890ED33
:102F4000000A2548D0ED000A20EE200A1C48D0EDEA
:102F5000000AB7EE001A71EE600A1E4890ED001AE2
:102F600000EE810A1D4880ED000A10BDEC01002032
:102F700000C0F3449C010020AC01002000409C44B0
:102F8000A0010020B001002000D09445C401002021
:102F9000D401002000309845C8010020D80100204D
:102FA000000000460000B44394010020A40100206A
:102FB000E4010020B401002098010020A8010020B5
:102FC000E8010020B8010020BC010020CC01002055
:102FD000DC010020C0010020D0010020E001002021
:102FE00010B5212011490870032048700846104987
:102FF000B1F8031041800E49D1F8051041600D4829
:1030000000780A49087208460B498968C0F80A1016
:103010000A4800780549C87210210448FDF7A6FF48
:1030200001210748FFF78CFA10BD0000DA67002085
:10303000630E0020D01200207C0D0020EB00002049
:10304000706002400A202B49C1F894000020C1F8AA
:103050009C006FF00A00C1F8980020202649C1F8B2
:1030600094000020C1F89C006FF01900C1F898008E
:1030700006202049C1F8A0000020C1F8A800801F48
:10308000C1F8A40011201C49C1F8A0000020C1F81B
:10309000A8006FF01000C1F8A4000C201749C1F877
:1030A00094000020C1F89C006FF00A00C1F898005D
:1030B0001B201349C1F894000020C1F89C006FF058
:1030C0001300C1F8980006200C49C1F8A0000020A8
:1030D000C1F8A800801FC1F8A4001B200849C1F84E
:1030E000A0000020C1F8A8006FF01300C1F8A400F0
:1030F0007047000020100020CC1000207811002024
:103100002412002010B504466078052802D0062855
:1031100053D13FE0E079C0F3810029490872E0799A
:1031200000F0030048720846407A10B10846007A61
:1031300000B910BDA078C000E17840EA61102049D4
:103140000880E0788001217940EAA100C0F30A00FC
:103150001B49488020794002617940EA4100A17909
:1031600040EAE110C0F30A0015498880A079000107
:10317000E17940EA2110C0F30A001149C88002F049
:1031800065FD1048B0F84800401C00B20D49A1F898
:10319000480012E0A0780C4908700C48D4F80310DD
:1031A0000160204600F014F80648B0F85000401CBA
:1031B00000B20449A1F8500000BF00BF00BFB8E74B
:1031C0006C090020CC0D0020AE00002094000020EF
:1031D00010B586B0044600208DF80C008DF80D0067
:1031E00008208DF80E0040F2063001900648007865
:1031F0008DF80F0005490968049101A90448FEF7FC
:1032000080FE06B010BD0000AE000020940000203B
:1032100000640040012803D1034991ED130A70476F
:10322000024991ED130AFAE7DC0C00202C0D002076
:10323000012803D1034991ED120A7047024991ED2B
:10324000120AFAE7DC0C00202C0D002070B50446B1
:1032500000202074A37B484D2D8803FB05F2616894
:10326000D4F8F400FDF708F8A27B434B1B8802FB5F
:1032700003F16068FDF719F8A27B3F4B1B885A43A6
:10328000A37B02FB03F1D4F81801FDF70EF8227BB3
:10329000394B1B885A43A37B02FB03F1D4F80C0182
:1032A000FDF703F8002031E0D4F8F41001EB8001C1
:1032B00091ED000AB5EEC00AF1EE10FA24D0D4F870
:1032C000F41001EB800191ED000A227CD4F8F41097
:1032D00001EB820181ED000A227C616A8854A169B8
:1032E00001EB800191ED000A6169095C227B237C7E
:1032F00012FB0311491ED4F80C2102EB810181ED70
:10330000000A217C491C2174411CC8B2A17B814266
:10331000CADC002011E0626A125CE16901EB820103
:1033200091ED000A227C00FB0202D4F8181101EB97
:10333000820181ED000A411CC8B2217C8142EADC95
:10334000207CA4F87800217B7A200153207BA4F80C
:103350008000217C82200153207CA4F89000217CF5
:1033600092200153207BA4F89800217C9A200153DD
:10337000207CA4F8480070BDD002002000BFFEE70A
:103380009FED0C0A81ED070A9FED0B0A81ED080AFB
:103390009FED0A0A81ED090A9FED090A81ED0A0AEB
:1033A00091ED0A0ADFED070A80EE801A81ED061A18
:1033B00070470000926B22BD3E8CD73C32823C3C71
:1033C0007A871A41E17A1C410EB5024610680090D6
:1033D000506801909068029000202DE03DF9103077
:1033E00000EE103AB8EEC00ADFED150A60EE200AD2
:1033F0009FED141A80EE810ADFED130A80EE201A89
:1034000001F10C0303EB800383ED001A0DF10603B9
:1034100033F9103000EE103AB8EEC00ADFED0B0AB7
:1034200020EE200ADFED0A0A80EE201A01EB80036D
:1034300083ED001A431CD8B20328CFDB0EBD000079
:10344000DB0F49406811834100003443E17A1C419D
:103450000000004670B52DED088B86B004460D4681
:10346000164694ED040ACA48D0ED000A30EE600A10
:10347000B0EEC00ADFEDC70AB4EEE00AF1EE10FAD2
:1034800022DC94ED050AC448D0ED000A30EE600A53
:10349000B0EEC00ADFEDBF0AB4EEE00AF1EE10FABA
:1034A00012DC94ED060ABD48D0ED000A30EE600A49
:1034B000B0EEC00ADFEDB70AB4EEE00AF1EE10FAA2
:1034C00002DC207800287DD094ED040ADFEDB40AF8
:1034D00080EE201AB0EE41BAB0EE4B0AFDF77AF951
:1034E000F0EE408A94ED050ADFEDAD0A80EE201A79
:1034F000B0EE41BAB0EE4B0AFDF76CF9F0EE40AA1F
:1035000094ED060ADFEDA60A80EE201AB0EE41BA6D
:10351000B0EE4B0AFDF75EF9B0EE409A94ED040A66
:10352000DFED9F0A80EE201AB0EE41BAB0EE4B0AF2
:10353000FDF7BCFCB0EE40AA94ED050ADFED980A59
:1035400080EE201AB0EE41BAB0EE4B0AFDF7AEFCA9
:10355000F0EE409A94ED060ADFED910A80EE201A13
:10356000B0EE41BAB0EE4B0AFDF7A0FCB0EE408AD7
:1035700068EE890A2AEE291AB0EE480A41EE000ADE
:103580008848C0ED000A2AEE8A0A874880ED000AC2
:10359000B0EE480A28EE800A69EE0A0A00EEE90A4F
:1035A000824880ED000A68EEA90AB0EE480A20EED3
:1035B000800A09EE4A0A7E4880ED000A28EEAA0A2F
:1035C0007C4800E021E080ED000AF1EE4A0AB0EE0E
:1035D000480A20EE800A68EE890A00EEE90A764879
:1035E00080ED000AF1EE6A0AB0EE480A20EE800A89
:1035F000724880ED000A7248C0ED009A2AEE890AEE
:10360000704880ED000A00202070002011E005EBDA
:10361000800191ED000A211D01EB8001D1ED000A2E
:1036200020EE200A03A901EB800181ED000A411C74
:10363000C8B20328EBDB9DED030A5A48D0ED000A1F
:1036400020EE200ADDED040A574890ED001A01EE45
:10365000200ADDED050A554890ED001A01EE200A1A
:1036600085ED000A9DED030A5148D0ED000A20EED9
:10367000200ADDED040A4F4890ED001A01EE200A01
:10368000DDED050A4C4890ED001A01EE200A85EDAB
:10369000010A9DED030A4948D0ED000A20EE200AF8
:1036A000DDED040A464890ED001A01EE200ADDED3A
:1036B000050A444890ED001A01EE200A85ED020A41
:1036C00000200AE006EB800191ED000A694601EB5B
:1036D000800181ED000A411CC8B20328F2DB9DED98
:1036E000000A3048D0ED000A20EE200ADDED010A84
:1036F0002D4890ED001A01EE200ADDED020A2B485C
:1037000090ED001A01EE200A86ED000A9DED000AF8
:103710002748D0ED000A20EE200ADDED010A2548F9
:1037200090ED001A01EE200ADDED020A224890ED2C
:10373000001A01EE200A86ED010A9DED000A1F48DD
:10374000D0ED000A20EE200ADDED010A1C4890EDC4
:10375000001A01EE200ADDED020A1A4890ED001A67
:1037600001EE200A86ED020A94ED040A084880ED75
:10377000000A94ED050A084880ED000A94ED060A57
:10378000064880ED000A06B0BDEC088B70BD000055
:10379000A00200206F12833AA4020020A802002099
:1037A000E12E6542AC020020B0020020B4020020ED
:1037B000B8020020BC020020C0020020C402002089
:1037C000C8020020CC02002010B5044654F8EC0FCB
:1037D00090ED000A834880ED000A206890ED010A10
:1037E000814880ED000A206890ED020A7F4880ED54
:1037F000000A54F8EC0990ED030A7D4880ED000AB8
:103800007848D0ED000A60EEA00A774890ED001AE3
:10381000D0ED001A41EE210A744890ED001AD0ED67
:10382000001A41EE210A724890ED001AD0ED001AFC
:1038300041EE210AB0EE600A04F0DCFB6D4880ED39
:10384000000A002012E0D4F8EC1001EB800191EDA9
:10385000000A6849D1ED000A20EE200AD4F8EC10E5
:1038600001EB800181ED000A411CC8B20428EADBAB
:10387000614890ED6F0A5C48D0ED000A20EE200A06
:10388000F0EE000A80EE201AF834A06880ED041AE9
:10389000594890ED6F0A5548D0ED000A20EE200AF5
:1038A000F0EE000A80EE201AA06880ED051A52485A
:1038B00090ED6F0A4B48D0ED000AF1EE600A20EE61
:1038C000200AF0EE000A80EE201AA06880ED0A1AA5
:1038D000494890ED6F0A4648D0ED000A20EE200AD4
:1038E000F0EE000A80EE201AA06880ED0B1A424824
:1038F00090ED6F0A3E48D0ED000AF1EE600A20EE2E
:10390000200AF0EE000A80EE201AA06880ED101A5E
:10391000394890ED6F0A3348D0ED000AF1EE600AA5
:1039200020EE200AF0EE000A80EE201AA06880ED5A
:10393000111A314890ED6F0A2C48D0ED000A20EEA4
:10394000200AF0EE000A80EE201AA06880ED161A18
:10395000294890ED6F0A2448D0ED000AF1EE600A84
:1039600020EE200AF0EE000A80EE201AA06880ED1A
:10397000171A206890ED1C0A1F48D0ED740A80EEDB
:10398000201A206880ED1C1A206890ED230A1A483E
:10399000D0ED740A80EE201A206880ED231A54F8C6
:1039A000F80990ED1C0ADFED150AB4EEE00AF1EE1D
:1039B00010FA05DD9FED110AD4F8F80080ED1C0A1D
:1039C000D4F8F80090ED230ADFED0C0AB4EEE00A1B
:1039D000F1EE10FA05DD9FED090AD4F8F80080ED4C
:1039E000230A10BD74030020780300207C0300200C
:1039F0008003002084030020E069002000401C4672
:103A000010B52DED068BF0EE408AB0EE60AAB0EE58
:103A1000419AB0EE618AF0EE429A01203A4908706C
:103A20000846C0ED6C8A80ED6DAA80ED6E9A9FED20
:103A3000370A80ED730A002081F838010A46C2F87F
:103A40004001C2F844010021C2F84811C2F84C11EB
:103A5000B7EE000AB4EEC08AF1EE10FA03DDB7EE5D
:103A6000000AB0EE408A284880ED748AC0ED649A5E
:103A7000032300220621001D01F062F8244B0122DD
:103A80001146A3F10800FCF74EFFB7EE000A1E48EE
:103A9000D0F8EC0080ED000A9FED1E0A1A48D0F81D
:103AA000EC0080ED010A9FED1B0A1748D0F8EC00EE
:103AB00080ED020A9FED170A1348D0F8EC0080ED64
:103AC000030A15491048C0F8D0101449C0F8D410A2
:103AD0001349C0F8D8101349C0F8DC10012180F850
:103AE0002E1080F82F1001469022D1F804010E49C3
:103AF000FCF7C2FB04499022D1F8FC000B49FCF70B
:103B0000BBFBBDEC068B10BDE069002077CC2B32EF
:103B1000A86B002000000000313B0008C9370008F6
:103B2000653B0008C1420008A89E0008D40200209E
:103B300010B5044654F8F81F90220748FCF79CFB88
:103B400048220648616AFCF797FB6169F83C482205
:103B50000348FCF791FB10BDD4020020C06B00208D
:103B6000086C002010B5044654F8EC0F90ED000AE4
:103B7000F0EE000A20EE200A3F4880ED000A20689F
:103B800090ED010AF0EE000A20EE200A3B4880ED9D
:103B9000000A206890ED020AF0EE000A20EE200AEA
:103BA000374880ED000A206890ED030AF0EE000A25
:103BB00020EE200A334880ED000A14F8DE2C324B48
:103BC0001B885A4314F8E03C02FB03F1206AFCF71F
:103BD0006CFB2B4890ED000AB1EE400A206A80EDA4
:103BE000000A284890ED000A206A80ED010A224868
:103BF00090ED000AB1EE400A206A80ED020A1F48EB
:103C000090ED000A206A80ED030A1C4890ED000A3E
:103C1000206A80ED060A184890ED000A206A80EDBF
:103C2000070A184890ED000A206A80ED080A144837
:103C300090ED000A206A80ED090A0F4890ED000A15
:103C4000206A80ED0C0A0D4890ED000AB1EE400AA2
:103C5000206A80ED0D0A0A4890ED000AB1EE400A94
:103C6000206A80ED0E0A074890ED000A206AEC3CBD
:103C700080ED0F0A10BD0000880300208C03002097
:103C80009003002094030020D002002010B52DEDF9
:103C9000088BB0EE40AAF0EE60AAB0EE41BAF0EEAA
:103CA000618AB0EE429AF0EE629AB0EE438AFE4824
:103CB000007858B99FEDFD2AF7EE001A9FEDFC1A27
:103CC000DFEDFC0AB2EE040AFFF79AFEF64880ED3B
:103CD0006F8A90ED580A3AEE400A80ED5B0A90ED4B
:103CE000590A3AEEC00A80ED5C0A90ED5A0A3BEEA2
:103CF000400A80ED5D0A90ED5B0AF6EE000A20EEC8
:103D0000200A20EE080AEC4880ED000AE64890ED13
:103D10005C0AF6EE000A20EE200A20EE080AE748C8
:103D200080ED000AE04890ED5D0AF6EE000A20EE14
:103D3000200A20EE080AE24880ED000ADA499022C3
:103D4000D1F80401DF49FCF797FADB4890ED000A4F
:103D5000B1EE400AD448D0F8040180ED010AD748FA
:103D600090ED000AB1EE400ACF48D0F8040180ED92
:103D7000020AD34890ED000AB1EE400ACA48D0F8D2
:103D8000040180ED030ACC4890ED000AC648D0F843
:103D9000040180ED060ACA4890ED000AC248D0F836
:103DA000040180ED080AC54890ED000AB1EE400A12
:103DB000BD48D0F8040180ED090AC04890ED000A22
:103DC000B948D0F8040180ED0C0ABD4890ED000A16
:103DD000B1EE400AB448D0F8040180ED0D0AB648AF
:103DE00090ED000AB048D0F8040180ED0F0AB44805
:103DF00090ED000AAC48D0F8040180ED120AAF48FB
:103E000090ED000AA848D0F8040180ED130AAA48F2
:103E100090ED000AB1EE400AA348D0F8040180ED0D
:103E2000140AA148D0F84811D0F84C010023594099
:103E30005840014306D19C48C0ED5E8A80ED5F9AF0
:103E4000C0ED609A984890ED5E0AD0ED640A60EE8D
:103E5000200A90ED6F0A90ED641A30EE011A80EEA0
:103E6000810AD0ED6F0A90ED641A70EE810A90ED30
:103E70006F1A21EE281AC1EE201A30EE210A80EDC9
:103E80005E0A90ED5F0AD0ED640A60EE200A90EDC4
:103E90006F0A90ED641A30EE011A80EE810AD0EDBF
:103EA0006F0A90ED641A70EE810A90ED6F1A21EEA0
:103EB000091AC1EE201A30EE210A80ED5F0A90ED5A
:103EC000600AD0ED640A60EE200A90ED6F0A90ED72
:103ED000641A30EE011A80EE810AD0ED6F0A90ED7F
:103EE000641A70EE810A90ED6F1A21EE291AC1EE64
:103EF000201A30EE210A80ED600AD0ED5E0A60EEF5
:103F0000A00A90ED5F1AD0ED5F1A41EE210A90ED04
:103F1000601AD0ED601A41EE210AB0EE600A04F09A
:103F200069F8694880ED000A002011E0674901EB5B
:103F3000800191ED000A6449D1ED000A20EE200ACB
:103F40005949896801EB800181ED000A411CC8B222
:103F50000328EBDB5448D0ED5B0A60EEA00A90ED3D
:103F60005C1AD0ED5C1A41EE210A90ED5D1AD0ED9D
:103F70005D1A41EE210AB0EE600A04F03BF8F7EE5C
:103F8000000A80EE801A484880ED651A4E4890ED90
:103F9000000AF7EE000A80EE801A434880ED661AA8
:103FA00090ED650ADFED4A0AB4EEE00AF1EE10FA90
:103FB00016D290ED660ADFED470AB4EEE00AF1EEA4
:103FC00010FA0DDD90ED660ADFED430AB4EEE00A6B
:103FD000F1EE10FA04D20120334981F8390103E0EF
:103FE0000020314981F839012F4890ED6C0AD0ED5D
:103FF0006F0A20EE200AD0F8180180ED000A2A4846
:1040000090ED6C0AD0ED6F0A20EE200AD0F818016E
:1040100080ED070A244890ED6C0AD0ED6F0A20EE7F
:10402000200AD0F8180180ED0E0A1F4890ED6C0AA6
:10403000D0ED6F0A20EE200AD0F8180180ED150AA5
:10404000194890ED6D0AD0ED6F0A20EE200AD0F8E5
:10405000180180ED1C0A144890ED6D0AD0ED6F0A2E
:1040600020EE200AD0F8180180ED230A0E4890EDCA
:104070006E0AD0F81C0180ED000A0B4890ED6E0A24
:10408000D0F81C0180ED040A074890ED6E0AD0F8C4
:104090001C0180ED080A0448001D01F0D1F9024816
:1040A000406890ED000A19E0E0690020000000007F
:1040B0008096184B6F12833A640300206803002037
:1040C0006C030020A89E000870030020586B00209D
:1040D0009A99993ECDCC1441CDCC2441734880EDC2
:1040E000540A406890ED010A704880ED550A406816
:1040F00090ED020A6D4880ED560A406890ED030A83
:104100006A4880ED570A406890ED040A674880EDE0
:10411000580A406890ED050A644880ED590A1FED81
:104120001D0A80ED5A0A90ED541A21EE011AD0EDC5
:10413000551A90ED552A01EE821AF7EE001AB0EEEC
:10414000002A52EE011AF0EE610A90ED541AD0EDF9
:10415000571A21EE211AD0ED551A90ED562A01EE8C
:10416000821AF0EE001A21EE211AB0EE410A03F095
:10417000D9FBDFED4F0A20EE200A4C4880ED6A0A99
:1041800090ED541A21EE011AD0ED571A90ED572AEE
:1041900001EE821AF7EE001AB0EE002A52EE011A72
:1041A000F0EE610A90ED541AD0ED551A21EE211A65
:1041B000D0ED561A90ED572A01EE821AF0EE001A51
:1041C00021EE211AB0EE410A03F0ACFBDFED380A14
:1041D00020EE200A354880ED690AD0ED550A90EDB1
:1041E000571A60EE810A90ED541AD0ED561A41EE3E
:1041F000610AB8EE001A60EE810AB0EE600A03F0C0
:10420000FBFADFED2B0A20EE200A284880ED680A31
:1042100090ED6A0AD0ED760A30EE600ADFED250AED
:10422000B4EEE00AF1EE10FA07DDB0F8D401401E5A
:1042300000B21E49A1F8D40114E01C4890ED6A0AAE
:10424000D0ED760A30EE600ADFED1B0AB4EEE00A2C
:10425000F1EE10FA06D2B0F8D401401C00B21349B6
:10426000A1F8D401114890ED6A0AB0F9D40100EE2A
:10427000900AF8EEE00A9FED111A01EE200A0B48B1
:1042800080ED6B0A90ED6A0A80ED760AD0F848213D
:10429000D0F84C01521C40F100000449C1F84821FB
:1042A000C1F84C01BDEC088B10BD0000E069002096
:1042B000E12E654200003443000034C30000B443E3
:1042C00070B52DED028B044604F1800104F17800F5
:1042D000FCF79AFD84F8C800B4F87800A4F8A800A8
:1042E0005A20015BAA20015304F1A80204F15801ED
:1042F00004F17800FCF796FC84F8C800B4F8A80034
:10430000A4F8B0008220015BB220015304F1B00296
:1043100004F1800104F1A800FCF784FC84F8C800D3
:10432000B4F89000A4F8A0009220015BA2200153F1
:1043300004F1A00204F1900104F1B000FCF796FA38
:1043400084F8C80004F1B00104F1A000FCF7F0FA11
:10435000AC342077206C90ED000AFE4880ED000A16
:10436000206C90ED010AFC4880ED000A206C90ED75
:10437000020AFA4880ED000A206C90ED030AF84822
:1043800080ED000A34F8340CA081AC3C0121BA2045
:104390000153F14890ED000AF148D0ED000A20EEFB
:1043A000200AEC48D0ED000AEC4890ED001A00EE2F
:1043B000C10AF0EE000A20EE200AD4F82C0180EDAC
:1043C000000AE44890ED000AE348D0ED000A20EE30
:1043D000200AE248D0ED000AE14890ED001A00EE14
:1043E000810AF0EE000A20EE200AD4F82C0180EDBC
:1043F000010AD84890ED000A20EE000AD648D0ED18
:10440000000A90ED001A00EEC10AD448D0ED000A6F
:1044100090ED001A00EEC10AD148D0ED000A90EDEF
:10442000001A00EE810AD4F82C0180ED020A002562
:1044300012E0D4F82C0100EB850090ED000AB0EEFC
:10444000C00AB0EE408A03F04BF9C64800EB850085
:1044500080ED000A681CC5B2032DEADBB4F8480001
:10446000A4F8C0000121C220015304F1C00204F1EC
:10447000B80104F14800FCF769FC84F8C800B4F8FE
:10448000C000A4F8A8000121AA20015304F1A80249
:1044900004F1C00104F1B000FCF7C4FBB83420748F
:1044A000012020802189B83CBA20015304F1B801D1
:1044B00004F1C000FCF7A8FC84F8C800A94A3C320B
:1044C00004F1A80104F1B800FCF7ACFB84F8C800C3
:1044D000A54890ED720AD0ED730AB6EE001A60EEB0
:1044E000810AB4EEE00AF1EE10FA03D201209E49EF
:1044F00081F838019C4890ED720AD0ED730AB4EE51
:10450000E00AF1EE10FA46DD90F83801002842D0BA
:10451000954890F8390168B19348D0F84011D0F827
:104520004401491C40F100008F4AC2F84011C2F812
:10453000440105E000208C4AC2F84001C2F8440161
:104540008948D0F84031D0F844210020D3F132011D
:10455000904106D20020844981F8380184F82C006B
:104560004AE0237B814D2D8803FB05F2D4E93A0113
:10457000FBF782FE237B7D4D2D886B43257B03FB60
:1045800005F2D4E93E01FBF777FE012084F82C0008
:10459000BDEC028B70BD744890ED720AD0ED730AC9
:1045A0009FED731A60EE810AB4EEE00AF1EE10FAA4
:1045B00014DD90F8380188B16B4890ED730AD0EDA6
:1045C000720A30EE600AD0ED730A9FED6A1A60EE4F
:1045D000810A80EE201A80ED671A04E0B7EE000A27
:1045E000614880ED670A00215F4AC2F84011C2F8B5
:1045F0004411002084F82C00B4F85800A4F8A80056
:104600008220015BAA20015304F1A80204F1800179
:1046100004F15800FCF706FB84F8C80004F1980286
:1046200004F1B00104F1A800FCF7FCFA84F8C8001A
:10463000002012E0D4F81C1101EB800191ED000A7A
:104640004949D1ED670A20EE200AD4F81C1101EB8C
:10465000800181ED000A411CC8B2B4F898109A227A
:10466000125B51438142E5DC042025E000211FE07C
:10467000021F3C4B03EB8202D2ED000A9FED3E1A73
:1046800080EE810A00EB40030B44D4F81C2102EBBE
:104690008302D2ED000A20EE200A00EB40030B4417
:1046A000D4F81C2102EB830282ED000A4A1CD1B22D
:1046B0000329DDDB411CC8B20628D7DBB4F898001B
:1046C000A4F8B8000121BA20015304F1B80204F1A2
:1046D000C00104F19800FCF7A5FA84F8C80022484C
:1046E00090F83801A0B3042058E0BC21095901EB2F
:1046F000800191ED000A1C49D1ED6F0A9FED1F1A50
:1047000060EE810AB4EEE00AF1EE10FA0BDD91EDF5
:104710006F0ADFED1A0A20EE200ABC21095901EBCD
:10472000800181ED000ABC21095901EB800191ED66
:10473000000A0D49D1ED6F0A9FED111A60EE810A52
:10474000B4EEE00AF1EE10FA26D291ED6F0A19E00C
:1047500026E00000980300209C030020A003002016
:10476000A4030020646B0020E0690020D002002038
:10477000CDCCCC3D6666663FDA0FC93F0AD7233CF5
:104780000AD723BC5FED020A20EE200ABC2109599A
:1047900001EB800181ED000A411CC8B20628A4DBB0
:1047A0009FED080ABC20005980ED030A04F1300295
:1047B00004F1B80104F13800FCF758F884F8C80097
:1047C00000BFE5E60000000010B5B7EE000A16488D
:1047D00080ED010AB7EE000A80ED020AB7EE000A8A
:1047E00080ED030A9FED110A80ED040A9FED0F0A88
:1047F00080ED050A9FED0D0A80ED060A01200A49A9
:1048000008709FED0A2AF7EE001A9FED091ADFEDF6
:10481000090AB2EE040AFFF7F3F89FED070A07480A
:1048200080ED100A10BD0000C469002000000000E7
:104830008096184B6F12833A96430B3C44690020D4
:1048400070B586B005460C46964A07CA03AB07C347
:104850009548FEF73FFA954880ED000A944890EDA0
:10486000000A9248D0ED000A30EE200A904880ED10
:10487000000A00BF21462846FEF7A6FD002021E0E1
:1048800004EB800191ED000AD4ED060A20EE200A27
:1048900004EB800181ED000A04F10C0101EB8001C1
:1048A00091ED000A04F11C0101EB8001D1ED000A39
:1048B00030EE600A04F10C0101EB800181ED000A89
:1048C000411C08B20328DBDB94ED000A794880ED37
:1048D000070A94ED010A80ED080A94ED020A80EDC2
:1048E000090A94ED030A80ED040A94ED040A80EDB0
:1048F000050A94ED050A80ED060A00F11C0200F19C
:1049000010016D48FEF7A6FD6A4890ED091AF0EE19
:10491000410A90ED071AB0EE410A03F003F8B1EE38
:10492000400ADFED660A20EE200ADFED650A80EE20
:10493000201A604880ED1A1A90ED091AF0EE410A2B
:1049400090ED081AB0EE410A02F0ECFFDFED5B0AD1
:1049500020EE200ADFED5A0A80EE201A554880ED3D
:104960001B1A90ED093AF0EE432A90ED083AB0EEAA
:10497000432A90ED073AF0EE431A90ED063AB0EE76
:10498000431A90ED053AF0EE430A90ED043AB0EE8A
:10499000430A464890ED003AFFF778F945494948FF
:1049A000D0E91536026DC06D81E84C00C8600A463A
:1049B00044314548FCF780FB3E4A02F15001434830
:1049C000FCF77AFB3B4A02F15C014148FCF774FBBF
:1049D000384A694603A8FDF724FF002039E035492D
:1049E0001C3101EB800191ED000A694601EB800169
:1049F000D1ED000A30EE600A2C49D1ED000A20EE1C
:104A0000200A2C49D1ED100A284991ED001A30EE08
:104A1000811AC0EE010A2749283101EB800191ED8E
:104A2000000A244991ED101A20EE010A91ED101AA6
:104A30001E49D1ED001A31EE211AC0EE011A30EEF6
:104A4000A10A1C49283101EB800181ED000A411CBB
:104A5000C8B20328C3DB174A02F13401A1F10C00EC
:104A6000FCF72AFB1B4890ED6A0A124880ED1E0AEB
:104A7000184890ED690A0F4880ED1D0A154890ED21
:104A8000680A0C4880ED1C0A124890ED6B0A094830
:104A900080ED1F0A00BF10480068401C0E490860E6
:104AA00006B070BD9C9E0008880200208C02002089
:104AB0009002002044690020C469002000003443B3
:104AC000DB0F4940E06A0020789E0008849E0008C1
:104AD000909E0008E06900209C02002000B585B08F
:104AE00000208DF808008DF8090008208DF80A00D4
:104AF0004FF4837000900D4800788DF80B000C483F
:104B000001788DF80C100B480088010A8DF80D1003
:104B1000084801788DF80E10074801788DF80F10BD
:104B200069460648FDF7EDF905B000BD1801002003
:104B30001A01002084000020880000200068004046
:104B40000FB583B00420FE4908800820FD49088085
:104B5000DDE90310087303990598487303990698D3
:104B600088730021039801740698029003F072FA8A
:104B70000399486106980290039840690190029950
:104B8000FBF793FBEE48008806994843029003F038
:104B900061FA03998861EA480088069948430290BF
:104BA0000398806901900299FBF77FFBE448008835
:104BB00006994843029003F04DFA0399C861E04812
:104BC00000880699484302900398C06901900299B1
:104BD000FBF76BFBDA48008804994843029003F026
:104BE00039FA03990862D64800880499484302902C
:104BF0000398006A01900299FBF757FB0698029010
:104C000003F028FA03994862069802900398406AD4
:104C100001900299FBF749FBC94800880499484371
:104C2000029003F017FA03990860C54800880499B8
:104C3000484302900398006801900299FBF735FB06
:104C4000BF48008806994843029003F003FA03998D
:104C50004860BB4800880699484302900398406822
:104C600001900299FBF721FBB5480088059948435C
:104C7000029003F0EFF903998860B1480088059924
:104C8000484302900398806801900299FBF70DFB5E
:104C9000AB48008804994843029003F0DBF903997C
:104CA000C1F8E800A6480088049948430290039898
:104CB000D0F8E80001900299FBF7F7FA0398D0F8D2
:104CC000E80002900398007B019001220146DDE993
:104CD00002303030FBF727FE99480088049948439A
:104CE000029003F0B7F90399C1F8EC0094480088EA
:104CF0000499484302900398D0F8EC00019002997F
:104D0000FBF7D3FA0398D0F8EC0002900398007BED
:104D1000019001220146DDE902303830FBF703FE45
:104D2000059818B38648008805994843029003F017
:104D300091F90399C1F8F00081480088059948432A
:104D400002900398D0F8F00001900299FBF7ADFAB9
:104D50000398D0F8F00002900398407B0190012264
:104D60000146DDE902304030FBF7DDFD7448008884
:104D700006994843029003F06DF90399C1F8F400D5
:104D80006F4800880699484302900398D0F8F400D1
:104D900001900299FBF789FA0398D0F8F400029089
:104DA0000398807B019001220146DDE90230483002
:104DB000FBF7B9FD624800880499484348430290D4
:104DC00003F048F90399C1F8F8005D480088049998
:104DD0004843484302900398D0F8F80001900299A4
:104DE000FBF763FA0398D0F8F80002900398007B71
:104DF00001900398007B00900146DDE902305030BD
:104E0000019AFBF790FD4E480088049948434843B7
:104E1000029003F01FF90399C1F8FC00484800888C
:104E200004994843484302900398D0F8FC0001904D
:104E30000299FBF73AFA0398D0F8FC000290039825
:104E4000007B01900398007B00900146DDE9023071
:104E50005830019AFBF767FD3948008804994843A8
:104E60004843029003F0F6F80399C1F80001344872
:104E70000088049948434843029003F0EBF80399F3
:104E8000C1F804012E480088049948434843029021
:104E90000398D0F8000101900299FBF706FA284820
:104EA000008804994843484302900398D0F80401CD
:104EB00001900299FBF7F9F90398D0F800010290EC
:104EC0000398007B01900398007B00900146DDE988
:104ED00002306030019AFBF726FD0398D0F80401F8
:104EE00002900398007B01900398007B009001469C
:104EF000DDE902306830019AFBF715FD059878B3BB
:104F00000F4800880499484305994843029003F0EC
:104F1000A1F80399C1F80801094800880499484399
:104F20000599484302900398D0F80801019002992E
:104F3000FBF7BBF90398D0F808010290039803E04F
:104F4000D0020020D2020020407B01900398007B19
:104F500000900146DDE902307030019AFBF7E3FC76
:104F6000B94800880699484304994843029003F0E1
:104F700071F80399C1F80C01B348008804994843BB
:104F800006994843029003F065F80399C1F81001AF
:104F9000AD48008806994843049948430290039815
:104FA000D0F80C0101900299FBF77FF9A648008820
:104FB000049948430699484302900398D0F8100199
:104FC00001900299FBF771F90398D0F80C01029057
:104FD0000398007B01900398807B00900146DDE9F7
:104FE00002307830019AFBF79EFC0398D0F810014C
:104FF00002900398807B01900398007B009001460B
:10500000DDE902308030019AFBF78DFC8E48008884
:10501000049948434843029003F01CF80399C1F8EF
:105020001401894800880499484348430290039832
:10503000D0F8140101900299FBF737F90398D0F8E2
:10504000140102900398007B01900398007B00906C
:105050000146DDE902308830019AFBF764FC7A48AA
:105060000088069948434843029002F0F3FF0399F1
:10507000C1F81801744800880699484348430290D3
:105080000398D0F8180101900299FBF70EF90398E4
:10509000D0F8180102900398807B01900398807BE0
:1050A00000900146DDE902309030019AFBF73BFCAD
:1050B000654800880499484306994843029002F0E5
:1050C000C9FF0399C1F81C015F480088049948434F
:1050D0000699484302900398D0F81C010190029968
:1050E000FBF7E3F80398D0F81C0102900398807B4B
:1050F00001900398007B00900146DDE90230983072
:10510000019AFBF710FC0398007B4F49098848433C
:105110000399097B4843029002F09CFF0399C1F870
:1051200020010398007B4849098848430399097B7B
:105130004843029002F08EFF0399C1F824010398BE
:10514000007B4149098848430399097B4843029001
:1051500002F080FF0399C1F828010398007B3A49C7
:1051600009884843029002F075FF0399C1F82C01A9
:105170000398007B344909884843029002F06AFF93
:105180000399C1F830010398D0F8200102900398E8
:10519000007B01900398007B00900146DDE902301E
:1051A000A030019AFBF7BFFB0398D0F824010290CE
:1051B0000398007B01900398007B00900146DDE995
:1051C0000230A830019AFBF7AEFB0398D0F8280113
:1051D00002900398007B01900398007B00900146A9
:1051E000DDE90230B030019AFBF79DFB0398D0F85F
:1051F0002C0102900398007B019001220146DDE919
:105200000230B830FBF78FFB0398D0F830010290E2
:105210000398007B019001220146DDE90230C03095
:10522000FBF781FB0021039880F82810039880F891
:105230002910039880F82A10039880F82B100398FF
:1052400080F82C1007B000BDD002002070B50446D5
:10525000E07B18B12046FDF7F9FF11E0A37B0E4D6E
:105260002D8803FB05F26168D4F8F400FBF704F81D
:10527000A27B094B1B8802FB03F16068FBF715F862
:10528000637B054D2D8803FB05F2A168D4F8F0007F
:10529000FAF7F2FF70BD0000D002002010B50446FE
:1052A00094F82C0068BBB4F89800A4F8A8007A2001
:1052B000015BAA200153B4F8A800A4F8B0005A205A
:1052C000015BB220015304F1A80204F1780104F15A
:1052D0009800FBF7A7FC84F8C80004F1B00204F1C1
:1052E000580104F1A800FBF79DFC84F8C80004F104
:1052F000500204F1B00104F15800FBF727FD84F8D7
:10530000C80010BD10B5044694F8290068BB04F12C
:10531000680104F16000FBF777FD84F8C80004F130
:10532000580204F1500104F16000FBF77BFC84F8A3
:10533000C800B4F85800A4F8A8006A20015BAA20AD
:10534000015304F1A80204F1680104F15800FBF7CD
:1053500069FC84F8C80004F1580204F1880104F1E2
:10536000A800FBF783FA84F8C80010BD10B5044606
:1053700094F82A00002861D104F1800104F178003A
:10538000FBF742FD84F8C800B4F87800A4F8A80040
:105390005A20015BAA20015304F1A80204F158012C
:1053A00004F17800FBF73EFC84F8C800B4F8A800CC
:1053B000A4F8B0008220015BB220015304F1B002D6
:1053C00004F1800104F1A800FBF72CFC84F8C8006C
:1053D000B4F89000A4F8A0009220015BA220015331
:1053E00004F1A00204F1900104F1B000FBF73EFAD1
:1053F00084F8C80004F1B00104F1A000FBF798FAAA
:1054000084F8C800B4F85800A4F8A8008220015B12
:10541000AA20015304F1A80204F1800104F158000C
:10542000FBF700FC84F8C80004F1980204F1B00115
:1054300004F1A800FBF7F6FB84F8C80010BD0000DB
:1054400070B504462046FFF701FFD4F8CC0018B130
:105450002046D4F8CC108847204600F085F8D4F8D0
:10546000D00018B12046D4F8D01088472046FFF766
:1054700049FFD4F8D40018B12046D4F8D410884796
:10548000207C08B9E07BB8B92046FFF76FFFD4F85D
:10549000D80018B12046D4F8D8108847204600F02C
:1054A000A1F8D4F8DC0018B12046D4F8DC10884705
:1054B0002046FFF7F3FE13E0237B2A4D2D8803FBE4
:1054C00005F2D4E93A01FAF7D7FE237B254D2D8862
:1054D0006B43257B03FB05F2D4E93E01FAF7CCFED2
:1054E000D4F8E00018B12046D4F8E0108847002036
:1054F00022E0227B00FB0202D4F8F81001EB8201CB
:1055000091ED000A216A01EB8001D1ED000AB4EEB1
:10551000E00AF1EE10FA0DD2216A01EB800191ED63
:10552000000A227B00FB0202D4F8F81001EB820192
:1055300081ED000A411CC8B2217B8142D9DC237B6A
:10554000084D2D8803FB05F2D4F8E8102068FAF71F
:1055500093FED4F8E40018B12046D4F8E41088474C
:10556000206870BDD002002010B5044694F82800D1
:1055700060BB607B00282ADD207BA4F8B8000121F5
:10558000BA20015304F1B80204F1300104F16000C3
:10559000FBF748FB84F8C800207BA4F8C000012179
:1055A000C220015304F1C00204F1400104F1700073
:1055B000FBF738FB84F8C80004F1380204F1C0019D
:1055C00004F1B800FBF752F984F8C80009E004F1CF
:1055D000380204F1300104F16000FBF723FB84F88A
:1055E000C80010BD10B5044694F82B00E0BBB4F819
:1055F0007800A4F8B8000121BA20015304F1B802E0
:1056000004F1380104F17800FBF70CFB84F8C800C2
:10561000B4F84800A4F8C0000121C220015304F1ED
:10562000C00204F1B80104F14800FBF78FFB84F8D5
:10563000C800B4F89800A4F8B8000121BA200153BA
:1056400004F1B80204F1C00104F19800FBF7EAFA92
:1056500084F8C80004F1300204F1B80104F1380004
:10566000FBF704F984F8C80010BD00001CB5012147
:10567000042000F047FA4FF4C040009001208DF85C
:10568000040003208DF8050000208DF806008DF839
:10569000070069460448FDF7AFFA4FF4C0410248DD
:1056A000FDF715FB1CBD00000008024000BFFEE72F
:1056B0002DE9F041044654F8015F6668A76828B2F6
:1056C0000649488030B2888038B2C880207B641E8A
:1056D000087200F005F8BDE8F08100000C690020B8
:1056E00000B585B000208DF808008DF8090008206D
:1056F0008DF80A0040F2071000900B484088ADF882
:105700000B0009498988ADF80D100749C988ADF823
:105710000F100549097A8DF8111069460348FCF706
:10572000F0FB05B000BD00000C69002000640040E3
:105730007047000070B5002100230F22C4781CB30D
:10574000174C246804F4E064C4F5E064C4F3072152
:10575000C1F10404E3B20A4144789C40E1B2847888
:10576000144021430C07210E0E4C05786155047836
:1057700004F01F050124AC4005786D11AD0005F162
:10578000E025C5F8004109E0047804F01F05012474
:10579000AC40054D0678761145F8264070BD0000F6
:1057A0000CED00E000E400E080E100E0024901438C
:1057B000024A1160704700000000FA050CED00E09D
:1057C00070B52DED048B0446207821285FD10B2184
:1057D000204601F0DFFC002859D02E4821680160E6
:1057E0006168416021890181A17A8172D0F8051038
:1057F0000846FAF78EFE41EC190B9FED270B53EC90
:10580000102BFAF76DFD41EC180BFAF7ADFE2449A9
:1058100008602048B0F9030000EE100AB8EEC00A94
:10582000B1EE400ADFED1F0A80EE201A11EE105A89
:105830002846FAF76EFE41EC190B9FED1B0B53EC5B
:10584000102BFAF7EEFD41EC180BFAF78DFE184914
:105850000860084690ED000A164880ED570A104887
:1058600090ED000A134880ED580A0A48407800F08D
:10587000070018B130200F49087002E0FF200D49E1
:1058800008700448407800F007000B490870BDEC30
:10589000048B70BD630E00206666666666660E4009
:1058A000B00000200000C842000000000000E03FFF
:1058B000B4000020D0120020EB000020F0EE400ADF
:1058C00090ED000A30EE600A80ED050A90ED050AC1
:1058D00090ED041A30EE410A80ED070A41B990EDCF
:1058E000060A90ED051A30EE010A80ED060A1CE06A
:1058F00090ED050AB5EEC00AF1EE10FA02DD90ED6A
:10590000050A03E090ED050AB1EE400A90ED091A90
:10591000B4EEC10AF1EE10FA07D890ED060A90ED48
:10592000051A30EE010A80ED060A90ED050A80EDB9
:10593000040A90ED060A90ED081AB4EEC10AF1EEE1
:1059400010FA04DB90ED080A80ED060A10E090EDF5
:10595000060A90ED081AB1EE411AB4EEC10AF1EE52
:1059600010FA05D890ED080AB1EE400A80ED060A5B
:1059700090ED010A90ED051A20EE010A80ED0A0A69
:1059800090ED020A90ED061A20EE010A80ED0B0A56
:1059900090ED030A90ED071A20EE010A80ED0C0A43
:1059A00090ED0A0A90ED0B1A30EE010A90ED0C1AF8
:1059B00030EE010A70470000B3EE090A404880ED5E
:1059C000040A9FED400A80ED050A9FED3E0A80ED36
:1059D000060A9FED3D0A80ED0B0A9FED3A0A80ED25
:1059E000030A9FED380A80ED1D0A9FED380A80ED0D
:1059F0001E0A008800EE100AB8EE400A304880ED1A
:105A00001F0AB3EE090A80ED270A9FED2E0A80EDEA
:105A1000280A9FED2C0A80ED290A9FED2B0A80EDC4
:105A20002E0A9FED280A80ED260A9FED260A80EDBA
:105A3000400A9FED260A80ED410AB0F88C0000EE86
:105A4000100AB8EE400A1E4880ED420AB2EE010A82
:105A50001F4880ED040AB6EE000A80ED050A9FEDAE
:105A6000190A80ED060A9FED1B0A80ED0B0A9FEDD7
:105A70001A0A80ED110A9FED130A80ED120A9FEDBC
:105A8000170A80ED130A9FED0F0A80ED180A0088AF
:105A900000EE100AB8EE400A0D4880ED100A9FEDA6
:105AA000090A80ED1D0A9FED090A80ED1E0A008893
:105AB00000EE100AB8EE400A054880ED1F0A704754
:105AC000080F0020000000000000484400000046CD
:105AD0007C0E0020000016443333B33ECDCC4C3E48
